:100000000C94F1000C9419010C9419010C94190131
:100010000C9419010C9419010C9419010C943513CA
:100020000C9419010C9419010C9459160C94D214C7
:100030000C9419010C9419010C9419010C941901D8
:100040000C94EB120C9419010C9419010C941901E5
:100050000C9419010C9419010C9419010C941901B8
:100060000C94B3130C9419015374617475733F00AD
:10007000496E626574726965626E61686D653F00A4
:1000800043563F004932432D5363616E3F0066651E
:10009000727469670030780056657273696F6E20FC
:1000A000004E6562656E756872002A2A2A2A003140
:1000B0003A002D002D2D2D003F3F3F00436F6E660F
:1000C0006967206C0053572D494400566572736967
:1000D0006F6E005265736572766500526573657266
:1000E0007665005265736572766500526573657258
:1000F00076650042412F4D6F6475730044657669E3
:100100006365494400726F004356002D2D3A2D2D32
:10011000006661696C65640073746F7265640046A3
:10012000617374436C6F636B005374617475730017
:1001300000000008000201000003040700000000A6
:100140000000000000000000250028002B00000037
:100150000000240027002A0004040404040404040A
:100160000202020202020303030303030102040862
:100170001020408001020408102001020408102011
:100180000086227E6DD24620290B217010408052BD
:100190003F065B4F666D7D077F6F090D614843D356
:1001A0005F777C395E79713D76301E753815373F43
:1001B000736B336D783E3E2A766E5B39640F23088D
:1001C000025F7C585E7B716F74100C753014545C48
:1001D0007367506D781C1C14766E5B46307001009E
:1001E000C11611241FBECFEFD8E0DEBFCDBF11E096
:1001F000A0E0B1E0EAEEFBE402C005900D92A63D5E
:10020000B107D9F724E0A6EDB1E001C01D92A83CEA
:10021000B207E1F710E0C1EFD0E004C02197FE0182
:100220000E94AD24C03FD107C9F70E94AD170C94BE
:10023000F3250C94000091E09093E80380930A0466
:100240001092E90310920B04089508950895F8940C
:100250008093BB046093BC0484E08093110490916C
:100260001104992381F094B19E6394B997B19F6072
:1002700097B99AB198639AB9662329F090911104BD
:10028000891B809312041092B0008DE08093B1001E
:1002900089EF8093B30082E0809370007894089592
:1002A000843054F4082E000C990BDC01A45FBB4F82
:1002B000633318F08FEF8C93089561110DC0209176
:1002C000BB04211107C0209111042150330B2817C2
:1002D000390781F780ECEFCFE62FF0E0E558FE4FCD
:1002E0008081E9CFCF9390ED960F9A3060F4C09162
:1002F000BB0421E02093BB04692F0E945001C093EE
:10030000BB04CF9108959FEB960F9A3120F4675369
:10031000CF910C945001E82FF0E0E45FFB4F603286
:1003200011F48FEF0FC08FEB6D3261F08FE76E32FB
:1003300049F08DEA6F3231F087EB6D3319F08CEABA
:100340006F3379F78083DDCF8530A8F4262F2052D4
:10035000330BF901E058FE4FE491A82FB0E0AA0F4B
:10036000BB1FA25ABB4F30E8439FA0011124E42BCE
:10037000F0E0ED93FC93089590E0FC01E459FE4F0A
:100380002491885A9E4FFC018491882399F090E033
:10039000880F991FFC01E25BFE4FA591B491FC010F
:1003A000EC5BFE4F859194918FB7F894EC91E22B22
:1003B000EC938FBF089590E0FC01E05DFE4F249127
:1003C000FC01E459FE4F3491FC01E85AFE4FE491E0
:1003D000EE23C9F0222339F0233001F1A8F42130B3
:1003E00019F1223029F1F0E0EE0FFF1FEC5BFE4F18
:1003F000A591B4918FB7F894EC91611126C0309516
:100400003E233C938FBF08952730A9F02830C9F0D0
:10041000243049F7809180008F7D03C08091800057
:100420008F7780938000DFCF84B58F7784BDDBCF5B
:1004300084B58F7DFBCF8091B0008F778093B00023
:10044000D2CF8091B0008F7DF9CF3E2BDACF3FB76E
:10045000F8948091E1029091E202A091E302B091C0
:10046000E40226B5A89B05C02F3F19F00196A11DF7
:10047000B11D3FBFBA2FA92F982F8827BC01CD01EE
:10048000620F711D811D911D42E0660F771F881F4D
:10049000991F4A95D1F708952FB7F8946091DD021E
:1004A0007091DE028091DF029091E0022FBF0895EB
:1004B000AF92BF92CF92DF92EF92FF920F931F9372
:1004C000CF93DF936C017B018B01040F151FEB01B0
:1004D0005E01AE18BF08C017D10759F06991D60167
:1004E000ED91FC910190F081E02DC6010995892BD9
:1004F00079F7C501DF91CF911F910F91FF90EF9098
:10050000DF90CF90BF90AF90089584E88093BC00B7
:1005100080E491E02091BC0027FF03C08091BB00E4
:1005200008950197B9F78091AB0280618093AB0287
:1005300080E0089594EA9093BC0020E431E090912B
:10054000BC0097FF0CC08093BB0084E88093BC0084
:1005500080E491E02091BC0027FF0AC0089521505B
:10056000310969F78091AB0281608093AB020895F5
:10057000019781F78091AB028260F7CF1F93CF93F1
:10058000DF93EC01162F6F8382E7888785E090E088
:100590009D838C8383E70E949A020E94850294E9DE
:1005A0009093BC0090E08095909502C095958795BA
:1005B0001A95E2F780FD0CC080E08E830E944C0209
:1005C000688379838A839B83DF91CF911F910895FC
:1005D00083E0F3CFFC01868180FD04C083FB882784
:1005E00080F9089580E00895FC019681997081E07A
:1005F000993009F080E00895CF92DF92EF92FF9258
:100600001F93CF93DF93EC01FF808885882379F1D6
:100610008F5F0E949A020E94850294E99093BC0029
:100620001E81912F977F9E831695117090E0809583
:10063000909502C095958795FA94E2F78170181706
:10064000C1F00E944C02688379838A839B838E81E8
:1006500092E089278E838E8183FB882780F9DF9142
:10066000CF911F91FF90EF90DF90CF9008958FEF83
:10067000D7CF0E944C02C880D980EA80FB80AB01B2
:10068000BC014C195D096E097F098C819D81B0E028
:10069000A0E0481759076A077B07E8F28E8181704E
:1006A0001817C9F20E944C02688379838A839B835E
:1006B0008E8191E089278860CDCF20918802260F16
:1006C0003327331F21323105ECF42091E203FC0182
:1006D00090E080E0243069F082E00895A0918802E3
:1006E0002191AC0148595D4FA40FB52FB11D2C933A
:1006F0000196861798F380918802680F60938802AC
:1007000080E0089581E008951092E20381E08093F3
:10071000E1031092BC0361E082E10E94DB0161E031
:1007200083E10E94DB01E9EBF0E080818E7F808332
:1007300080818D7F808388E48093B80085E48093F6
:10074000BC0008951092BB031092BA031092E90303
:1007500010920B040E94840385E291E09093B90308
:100760008093B80386E291E09093B7038093B60339
:100770000895CF93DF9391E0909367028823B9F0B7
:10078000C091B800D091BA008091BC008A7B809360
:10079000BC0060E082E10E94DB0160E083E10E9436
:1007A000DB010E948403D093BA00C093B800DF91AC
:1007B000CF9108958F929F92AF92BF92CF92DF9286
:1007C000EF92FF920F931F93CF93DF93D0910B047F
:1007D000D13208F0D7C0182FC0910A040E94270216
:1007E0006B017C018091E20381116BC082E08093F8
:1007F000E2031093E1038FEF8093E0031092DF0395
:10080000D093DE03AAEEB3E0EEEBF3E080E0D81382
:1008100091C01092BD038091BD03CC0FC82BC09333
:10082000BD038091BC03813009F088C01092BC03E5
:100830000E9427026B017C018091BD038093BB0065
:100840008091E4039091E503A091E603B091E70362
:10085000892B8A2B8B2BA1F00E9427020091E403A5
:100860001091E5032091E6033091E7036C197D09AF
:100870008E099F09061717072807390708F442C091
:100880008091BC0083FDD8CF85EC8093BC000E9492
:1008900027026B017C018091E203823009F450C091
:1008A0008091E0038F3F09F46FC08091E0038032B4
:1008B00009F46CC08091E003803309F469C084E0DE
:1008C00026C08091E4039091E503A091E603B091E6
:1008D000E703892B8A2B8B2B09F484CF0E942702F4
:1008E0008090E4039090E503A090E603B090E703C6
:1008F0006C197D098E099F0986169706A806B90608
:1009000008F070CF8091E3030E94B90385E0109254
:10091000E90310920B041092E803DF91CF911F912D
:100920000F91FF90EF90DF90CF90BF90AF909F908E
:100930008F9008959D9191938F5F69CF85EEA5CF9C
:100940008091E4039091E503A091E603B091E70361
:10095000892B8A2B8B2B09F49ECF0E9427020091B2
:10096000E4031091E5032091E6033091E7036C194D
:100970007D098E099F09061717072807390708F010
:100980008ACFC0CF81E0C3CF80E0C1CF82E0BFCFAC
:1009900083E0BDCFCF92DF92EF92FF920F931F9330
:1009A000CF93DF93D82FC62F613208F098C00E94F2
:1009B00027026B017C018091E20381116BC081E011
:1009C0008093E2038093E1039FEF9093E003109202
:1009D000DF039C0F9093DE038093BD038091BD03E2
:1009E000DD0FD82BD093BD038091BC03813009F07B
:1009F00078C01092BC030E9427026B017C01809199
:100A0000BD038093BB008091E4039091E503A09126
:100A1000E603B091E703892B8A2B8B2BA1F00E9470
:100A200027020091E4031091E5032091E603309141
:100A3000E7036C197D098E099F0906171707280718
:100A4000390708F448C08091BC0083FDD8CF85ECFD
:100A50008093BC000E9427026B017C018091E2031D
:100A6000813009F440C08091DF038C1710F4C091ED
:100A7000DF03EEEBF3E0A5EEB2E080E08C1355C0AF
:100A80008C2FDF91CF911F910F91FF90EF90DF900E
:100A9000CF9008958091E4039091E503A091E6033F
:100AA000B091E703892B8A2B8B2B09F484CF0E940A
:100AB00027020091E4031091E5032091E6033091B1
:100AC000E7036C197D098E099F0906171707280788
:100AD000390708F070CF8091E3030E94B903C0E0AA
:100AE000CFCF85EEB5CF8091E4039091E503A0913F
:100AF000E603B091E703892B8A2B8B2B09F4AECF49
:100B00000E9427020091E4031091E5032091E6037F
:100B10003091E7036C197D098E099F0906171707A5
:100B20002807390708F09ACFD6CF91919D938F5F10
:100B3000A5CF0895E091BB038091BA03E81730F484
:100B4000F0E0EB51FD4F808190E008958FEF9FEF33
:100B500008959091BB038091BA032FEF3FEF981750
:100B600048F4E92FF0E0EB51FD4F208130E09F5F2A
:100B70009093BB03C90108958091BA039091BB0380
:100B8000891B990B0895CF92DF92EF92FF920F93FA
:100B90001F93CF93DF937C01CB018A012091E8035F
:100BA000222389F0EB016B01C40ED51ECC15DD05A7
:100BB00069F06991D701ED91FC910190F081E02DF0
:100BC000C7010995F3CF642F0E945D03C801DF912F
:100BD000CF911F910F91FF90EF90DF90CF900895EC
:100BE000CF93DF931F92CDB7DEB769832091E803DF
:100BF0002223F9F020910B04203258F021E030E05C
:100C0000FC013383228390E080E00F90DF91CF914D
:100C100008958091E903E82FF0E0E651FC4F9981B7
:100C200090838F5F8093E90380930B0481E090E0D1
:100C3000ECCF61E0CE0101960E945D03F7CF682FF3
:100C400081E794E00C94F00581E00C94DA03CF93F3
:100C5000DF93CDE7D4E08A8388810E941B018E81D7
:100C60009F81DC01ED91FC910190F081E02D6A8182
:100C700009958E819F810E94240690E09D838C833C
:100C8000DF91CF910895CF93DF93EC0118820E94FA
:100C9000A203888180620E941B0180E00E941F06DF
:100CA0008FEF0E941F0681E794E00E94240688814E
:100CB00080620E941B0181E00E941F068FEF0E944C
:100CC0001F0681E794E0DF91CF910C942406CF9327
:100CD000DF93D62FC72FFC01808180620E941B0109
:100CE00082E10E941F068D2F0E941F068C2F0E94FA
:100CF0001F0681E794E0DF91CF910C942406CF93F7
:100D0000DF93EC018B81882371F088810E941B01A5
:100D100089819A810E94240691E0811190E0892FB7
:100D2000DF91CF9108950E94A20381E08B83CE01D1
:100D30000E947F06982F8111E8CFF1CF9C01DC0142
:100D4000A058BF4FEC9191E09E0F9C93E20FF32FC0
:100D5000F11D608397FD1C920895FC0180818076CF
:100D6000803611F4818108958081829586708E5F2E
:100D70000895CF92DF92EF92FF920F931F93CF933C
:100D8000DF93EC0109E11EE2EE24E394F12C93E001
:100D9000D92ECC24C394CE010E94AD0680932603A5
:100DA000E0912603E150109225038FEF90912503E7
:100DB0009E1768F4A0912503AC0FBD2FB11D9C9127
:100DC0008927909125039F5F90932503EFCFEC0F28
:100DD000FD2FF11D8083F89480912403813059F414
:100DE00080912303811738F01092240380916F00C3
:100DF0008D7F80936F00789480912403813031F44B
:100E000080912303843138F2C12CC5CF8091240313
:100E100081110EC0F89480916F008F7D80936F00D8
:100E2000B59B09C080916F00806280936F007894B9
:100E3000C110B1CF56C0E0912103F091220380810F
:100E400090912003970101C0220F9A95EAF7822B17
:100E5000808380918400909185008A5A9C4F909362
:100E60001F0380931E0380911E0390911F03909394
:100E70008900809388007894D0931D03C0931C034D
:100E80001092250310921B03888180931A03D0923D
:100E9000240310922303B19A80916F0082608093A3
:100EA0006F00809124038330E1F380911B0388233A
:100EB000B1F0E0911803F0911903E757FF4F8081DB
:100EC000918101969183808383E090E0DF91CF91BF
:100ED0001F910F91FF90EF90DF90CF900895809138
:100EE00024031B3108F01150015009F052CF8091BA
:100EF000B2039091B30301969093B3038093B2032E
:100F000086E090E0E3CF8930B8F429E0829FF001D9
:100F10001124E65DFE4F85819681803127E292079C
:100F200058F4883E23E0920748F48436910540F453
:100F30000A9740F481E0089585E0089584E00895DB
:100F400083E0089582E00895CF938091DA02909132
:100F5000DB02983110F48C3358F096E890930C042F
:100F60009FEA90930D0490930E049FEF90930F04CB
:100F7000CAE06C2F0E947F2460E3690F83E00E9427
:100F800072018091DA026C2F0E947F2460E3680F67
:100F900082E00E9472018091DB026C2F0E947F240C
:100FA00060E3690F81E00E9472018091DB0260E2E0
:100FB0008A3028F06C2F0E947F2460E3680F80E065
:100FC0000E9472018091D002882359F08091B5026D
:100FD000882339F080910F048F7780930F04CF918D
:100FE000089580910F048068F8CF089590E080E024
:100FF0000895EF92FF920F931F93CF93DF93DC013D
:1010000014962D913C912417350710F490E01DC0E3
:10101000EA017B018C01FC0180810E941B01D80147
:1010200011968D919C91DC01ED91FC910280F381F0
:10103000E02DAE01B7010995C817D90739F781E04E
:101040000E94DA0391E08111E1CF892FDF91CF91E6
:101050001F910F91FF90EF900895CF93DF93CDB73D
:10106000DEB761970FB6F894DEBF0FBECDBF198211
:10107000AEE5B4E0FE013196BF019C9111968C91D2
:101080001197129691838283329684E0AE36B80728
:10109000A1F741E150E080916E0490916F040E94AD
:1010A000F90761960FB6F894DEBF0FBECDBFDF9192
:1010B000CF9108950E94CA041092BB038093BA0393
:1010C0000895FF920F931F93CF93DF938C01C62F48
:1010D000DCE0683010F0C850DDE0F801808180620B
:1010E0000E941B018D2F0E941F0681E794E00E9441
:1010F0002406F8018081806261E070E090E00E9447
:101100005A0881E794E00E94A905F82EF801808131
:1011100080620E941B018D2F0E941F0681E090E0DB
:1011200001C0880FCA95EAF78F290E941F0681E740
:1011300094E0DF91CF911F910F91FF900C942406C2
:101140000F931F93CF93DF938C01C62FD2E16830AA
:1011500010F0C850D3E1F801808180620E941B0129
:101160008D2F0E941F0681E794E00E942406F8015B
:101170008081806261E070E090E00E945A0881E71F
:1011800094E00E94A905992702C095958795CA9574
:10119000E2F78170DF91CF911F910F910895FF9237
:1011A0000F931F93CF93DF931F92CDB7DEB78C01C0
:1011B0006983F42EF8014783608785E090E095838A
:1011C0008483642FCE0101960E94A008F801168244
:1011D0006F2DCE0101960E94A008882319F083E0AC
:1011E000F80186830E944C02F80160837183828338
:1011F00093830F90DF91CF911F910F91FF900895EE
:10120000EF92FF920F931F93CF93DF938C01C62F22
:10121000E42E84E1F82ED2E1683020F0C85095E148
:10122000F92ED3E1F801808180620E941B018F2D8D
:101230000E941F0681E794E00E942406F801808145
:10124000806261E070E090E00E945A0881E794E0DB
:101250000E94A90521E030E001C0220FCA95EAF7FB
:10126000F1E0C82FC22BEF1619F02095C22FC8232A
:10127000F801808180620E941B018D2F0E941F0651
:101280008C2F0E941F0681E794E0DF91CF911F9180
:101290000F91FF90EF900C942406FC01962F828D05
:1012A0008F3F31F0603140F4CF014B960C94000930
:1012B000642F892F0C94DB0108950F931F93CF9314
:1012C000DF93C62F8C01055E1F4FD1E062FB4427E0
:1012D00040F94D2768E0C8010E940009C1FB44277E
:1012E00040F94D2767E0C8010E9400094C2F409546
:1012F000417066E0C801DF91CF911F910F910C946E
:101300000009FF920F931F93CF93DF938C01C62F99
:10131000F42ED0E0683010F0C850D1E0F8018081A0
:1013200080620E941B018D2F0E941F0681E794E0BE
:101330000E942406F8018081806261E070E090E004
:101340000E945A0881E794E00E94A90521E030E05C
:1013500001C0220FCA95EAF7C82FC22BFF2019F04F
:101360002095C22FC823F801808180620E941B0152
:101370008D2F0E941F068C2F0E941F0681E794E08C
:10138000DF91CF911F910F91FF900C942406603153
:1013900010F40C9481090895CF93DF93EC0140E0A1
:1013A0006E810E944D0941E06E81CE010E944D097F
:1013B00040E06E81CE010E944D098BE891E00197DB
:1013C000F1F7DF91CF910895AF92BF92CF92DF9264
:1013D000EF92FF920F931F93CF93DF93EC018A8DCF
:1013E0008E01095F1F4FC62ED12C8F3F09F482C09A
:1013F0007E018BE1E80EF11C8B8D80620E941B0147
:1014000082E10E941F0681E794E00E9424068B8DF2
:10141000806262E070E090E00E945A0881E794E008
:101420000E94A905B82E81E794E00E94A90560E01A
:10143000782FCB018B29F80130E020E001E010E0AB
:101440004191B801042E02C0660F771F0A94E2F79B
:101450006095709586239723B601022E02C075957C
:1014600067950A94E2F76170772702C0660F771FCD
:101470004A95E2F7862B972B2F5F3F4F243031059B
:10148000F9F62E81680102C0CC0CDD1C2A95E2F72A
:10149000C094D094C822D922B601C7010E94670621
:1014A0008E81B80102C0660F771F8A95E2F7C62ABF
:1014B000D72AB601C7010E9467068E81B80102C013
:1014C000660F771F8A95E2F7609570956C217D21F4
:1014D000C7010E9467068BE891E00197F1F7DF9161
:1014E000CF911F910F91FF90EF90DF90CF90BF9021
:1014F000AF900895F12CE12C5E01EBE1AE0EB11C32
:10150000F80181918F019A8D9F3F39F141E0682F59
:10151000C5010E94C709A6010E2C02C0559547952A
:101520000A94E2F74170F80131976081CE010E9480
:101530004D09FFEFEF1AFF0A84E0E816F10401F706
:10154000CE01DF91CF911F910F91FF90EF90DF902F
:10155000CF90BF90AF900C94CC090E94BC01DBCF20
:10156000AF92BF92CF92DF92EF92FF920F931F93B1
:10157000CF93DF93EC01F62E6C810E944D096D81B3
:101580006F3F21F040E0CE010E944D090F2D10E089
:101590008C8984FF3AC06E0187E0C80ED11CF12C03
:1015A000E12C5E01EBE1AE0EB11CF60181916F0101
:1015B0009A8D9F3F39F141E0682FC5010E94C7090C
:1015C000A8010E2C02C0559547950A94E2F7417088
:1015D000F60131976081CE010E944D09FFEFEF1AAD
:1015E000FF0A88E0E816F10401F7CE01DF91CF9100
:1015F0001F910F91FF90EF90DF90CF90BF90AF9031
:101600000C94CC090E94BC01DBCFB80184E0759535
:1016100067958A95E1F7CE010E94E4096F2DCE010E
:10162000DF91CF911F910F91FF90EF90DF90CF90BE
:10163000BF90AF900C94E40941E00E94B00A81E0B1
:1016400090E0089541E0682F84E194E00E94B00AA0
:1016500081E090E008950F931F93CF93DF938C0167
:10166000D0E0C0E0F801EC0FFD1F6491662339F073
:1016700041E084E194E00E94B00A2196F3CFCE01CC
:10168000DF91CF911F910F91089540E00C94B00A23
:10169000CF93DF93CDB7DEB728970FB6F894DEBFB0
:1016A0000FBECDBF98E0E8E1F1E0DE0111960190B8
:1016B0000D929A95E1F790912C04961708F46FEF2C
:1016C000262F30E0220F331F41E050E04C0F5D1F0A
:1016D000240F351FF9016081680F606884E194E090
:1016E00028960FB6F894DEBF0FBECDBFDF91CF9125
:1016F0000C94450B61E00E94450B8BE39FE1019741
:10170000F1F7089584E194E00E947A0B60E080E0B4
:101710000E94480B84E890E00E942B0B82ED80939E
:10172000BF02089584E194E00E947A0B60E080E0BB
:101730000E94480B80E890E00E942B0B88EC80937D
:10174000BF02089584E194E00E947A0B60E080E09B
:101750000E94480B80E790E00E942B0B82E0809370
:10176000BF02089584E194E00E947A0B60E080E07B
:101770000E94480B88E690E00E942B0B81E080934A
:10178000BF0208954F925F926F927F928F929F92C5
:10179000AF92BF92CF92DF92EF92FF920F931F937F
:1017A000CF93DF9391E09093D1026091B102709159
:1017B000B2026F5F7F4F7093B2026093B102809369
:1017C000CF020093D601811101C090E09093D00226
:1017D000011104C09091100193FFA5C0882309F462
:1017E000A2C0D22F042F0E944C026093CB027093B0
:1017F000CC028093CD029093CE028091D202D81772
:1018000009F48DC080911001909111018072992787
:10181000D0FD04C0892B21F082E003C0892BE1F3C5
:1018200081E08093C8028091CA02882329F08091C8
:10183000C8028C6F0E9427068091B002882309F4A9
:101840006EC06D2F70E084E6089F600D711D11243D
:10185000072E000C880B990B0E9462232B013C0180
:1018600020E030E040E05FE30E944E220E943123FE
:101870006B017C01812C912C30E8A32E3FE3B32E29
:1018800010E080E1C81687E2D806E104F104E0F038
:10189000115020E030E040E251E4C501B4010E9463
:1018A000BF224B015C01AC019B01C301B2010E944C
:1018B000122420E030E040E05FE30E944E220E94CC
:1018C00031236B017C01DDCF20E030E040E85FE3B5
:1018D000C501B4010E94BA22712CC4E02AE0822E14
:1018E000912CA12CB12C87FF2FC080E490E0909325
:1018F0005F0480935E0490936104809360049093EE
:10190000650480936404909367048093660482E086
:1019100090E090936304809362040E942D080093EA
:10192000D302D093D202DF91CF911F910F91FF90FC
:10193000EF90DF90CF90BF90AF909F908F907F906F
:101940006F905F904F900895C114D104E104F104A9
:1019500011F4171588F1112319F044244394171139
:10196000412C5C2EC1506C2E84E0851558F0C701C7
:10197000B601A50194010E948B24605D442D852D44
:101980000E94A401C23069F4CEEFC50D84E0861533
:1019900040F0E62DF0E0EE0FFF1FE25AFB4F118200
:1019A0001082C701B601A50194010E948B24690130
:1019B0007A017394C9CFC150C7FDA9CFC530DCF7F8
:1019C000EC2FF0E0EE0FFF1FE25AFB4F1182108266
:1019D000F2CF0F93082F20910E0323548091100310
:1019E00098E9980F883618F468E10E947F24492FFF
:1019F0006091110380910B030E94C20B0F91089517
:101A00008F929F92AF92BF920F931F93CF93DF93CA
:101A1000CDB7DEB7A1970FB6F894DEBF0FBECDBF2E
:101A200019A2423008F44AE08E010F5D1F4F842E48
:101A3000912CB12CA12CA50194010E948B24E62F9E
:101A4000B901CA01EA3044F5E05DD801EE938D0199
:101A5000232B242B252B79F790E080E0109769F059
:101A6000FD0101900020E9F73197AF014A1B5B0BA4
:101A7000BD0184E194E00E945802A1960FB6F8944B
:101A8000DEBF0FBECDBFDF91CF911F910F91BF90F1
:101A9000AF909F908F900895E95CD7CFCF93DF935D
:101AA000EC016530D8F0C03187E2D80750F480E30C
:101AB0000E94220BC83E83E0D80718F480E30E94FE
:101AC000220BC436D10518F480E30E94220BCA30E1
:101AD000D10550F480E30E94220B06C0643051F31C
:101AE000633079F3623099F3BE0190E080E04AE020
:101AF000DF91CF910C94000DEF92FF920F931F9303
:101B0000CF93DF93CDB7DEB762970FB6F894DEBF01
:101B10000FBECDBF082FF92E609129046D7F609311
:101B20002904686084E194E00E94450B84E194E01C
:101B30000E947A0B60E080E00E94480B88E091E010
:101B40000E942B0B60E083E00E94480BE090BF02F4
:101B50001DEE1E0D1A3018F480E20E94220B612F38
:101B600070E090E080E04AE00E94000D1CEE1E0D47
:101B700060E086E00E94480B8CEF90E09A838983B6
:101B800083EF90E09C838B838BEE90E09E838D832C
:101B900083EE90E098878F838BED90E09A8789871A
:101BA00083ED90E09C878B878BEC90E09E878D8700
:101BB00085EC90E0988B8F878CEB90E09A8B898BEB
:101BC00088EB90E0193040F4E12FF0E0EE0FFF1FBA
:101BD000EC0FFD1F818192810E942B0B61E080E060
:101BE0000E94480B8091BE02882319F08EE30E9468
:101BF000220B1930A0F589E0189FF0011124E65D51
:101C0000FE4F8781823059F507FD03C080E30E94B3
:101C1000220B0034E0F480E30E94220B0032B8F47F
:101C200080E30E94220B003190F480E30E94220B9B
:101C3000083068F480E30E94220B043040F480E313
:101C40000E94220B023018F480E30E94220B602FC6
:101C500070E090E080E042E00E94000D08C0812F1B
:101C60000E948307682F802F9F2D0E944E0D809128
:101C7000BE02811144C0193048F489E0189FF00178
:101C80001124E65DFE4F80858823D9F161E08EE066
:101C90000E94480B85E091E062960FB6F894DEBF93
:101CA0000FBECDBFDF91CF911F910F91FF90EF90AD
:101CB0000C942B0B89E0189FF0011124E65DFE4F78
:101CC000808581111EC061E08091BB020E94480B9B
:101CD00060912904862F8260809329046A6084E1E0
:101CE00094E062960FB6F894DEBF0FBECDBFDF91D1
:101CF000CF911F910F91FF90EF900C94450B1930ED
:101D0000C8F262960FB6F894DEBF0FBECDBFDF916A
:101D1000CF911F910F91FF90EF90089584E194E08F
:101D20000E947A0B60E080E00E94480B81EA90E01C
:101D30000E942B0B61E080E00E94480B88E990E054
:101D40000E942B0B60910C0170910D0190E080E0DE
:101D50004AE00C94000D0F931F93CF93DF930E94E2
:101D6000A20380E20E941B0181E794E00E94240606
:101D700081112AC18091C102811108C18DE594E0D1
:101D80000E94430680912E048F3F09F457C00E94A1
:101D9000A2038FE294E00E94430641E068E08FE2F4
:101DA00094E00E94810941E066E08FE294E00E94A5
:101DB000810941E067E08FE294E00E94810967E0D9
:101DC00084E194E00E945D0960911904662329F082
:101DD00041E08FE294E00E94C70941E0609118045D
:101DE0008FE294E00E94C70941E060911A048FE2FB
:101DF00094E00E94C7090BE114E0C4E1D4E0F801CB
:101E000061918F0141E08FE294E00E94C709F4E004
:101E10000F311F07A1F709E114E040E06F858FE261
:101E200094E00E94C7096F85603120F48FE294E04E
:101E30000E94610821960C171D0779F780912804EC
:101E400088608093280482E080932C0410922D04F3
:101E50008BE39DE00197F1F740E06091180484E185
:101E600094E00E944D0940E060911A0484E194E0FE
:101E70000E944D09609119046F3F29F040E084E110
:101E800094E00E944D096091280464FD81C063E0E4
:101E900084E194E00E94E409CBE4D6E4CE0101970A
:101EA000F1F763E084E194E00E94E4092197F1F7FF
:101EB00063E084E194E00E94E40983E592E0019705
:101EC000F1F762E084E194E00E94E4096091280463
:101ED000606284E194E00E94450B84E080932904D1
:101EE0006CE084E194E00E94450B84E194E00E9460
:101EF0007A0B82E080932A0466E084E194E00E94F9
:101F0000450B40E065E08DE594E00E94810965E0C5
:101F10008DE594E00E94610844E050E060915D042A
:101F200080E394E00E94CF0843E050E060915D04BC
:101F300082E494E00E94CF0842E050E060915D04AA
:101F40008BE494E00E94CF0841E050E060915D0492
:101F500089E394E00E94CF0850E040E060915D0486
:101F600084E594E00E94CF0880910E0190910F01CA
:101F70000C9711F40E948E0E1092C0021092BF02B4
:101F80001092BD021092BC021092BE0281E01DC0F0
:101F9000606284E194E00E94450B8BE496E4019733
:101FA000F1F760912804606284E194E00E94450B9F
:101FB00083E592E00197F1F760912804606284E183
:101FC00094E00E94450B82CF80E08093C102DF91B4
:101FD000CF911F910F9108951F93CF93DF93C091DD
:101FE000BC02D091BD022196D093BD02C093BC0229
:101FF00061E080E00E94480BC038D10538F08EE8DF
:1020000090E0DF91CF911F910C942B0BC091BC02FB
:10201000D091BD028C2F0E941B0181E794E00E94A9
:102020002406182F882311F08430D1F485E990E03C
:102030000E942B0BDD27C031D10518F480E30E94EC
:10204000220BBE0190E080E040E10E94000D80E2A2
:10205000143009F48FE3DF91CF911F910C94220B80
:102060002196D093BD02C093BC02C6CFFC01019063
:102070000020E9F73197AF01481B590BBC0184E1FF
:1020800094E00C945802CF93DF9361E080E00E94CB
:10209000480B8091D102811106C084EB90E0DF9162
:1020A000CF910C942B0BD091CF02C091D60164E05C
:1020B0008091B1029091B2020E944E0D82EB90E0AD
:1020C0000E942B0B8091020190910301892BB9F59D
:1020D0008FEA90E00E942B0B62E08D2F90E00E942F
:1020E0004E0D8DE20E94220B80E3C11181E30E941C
:1020F000220B8DE20E94220B8091D20280FD24C02F
:102100008DEC91E00E9436108091020190910301C4
:10211000892B19F18AE20E94220B8091940480FDA0
:1021200016C081ED91E00E94361080918B0480FDF5
:1021300011C081ED91E0DF91CF910C9436108AEAC5
:1021400090E00E942B0BCDCF8BEC91E0DBCF8FEC9E
:1021500091E0E9CF8FEC91E0EECFDF91CF91089540
:1021600085ED8093BC008091E4039091E503A091FC
:10217000E603B091E7030796A11DB11D23E0B695D4
:10218000A795979587952A95D1F72091BC0024FDB6
:1021900003C01092E20308954091E4035091E503D7
:1021A0006091E6037091E703452B462B472B69F3BB
:1021B0000097A105B10541F02AE22A95F1F700C088
:1021C0000197A109B109E1CF8091E3030C94B90310
:1021D0002F923F924F925F926F927F928F929F9237
:1021E000AF92BF92CF92DF92EF92FF920F931F9325
:1021F000CF93DF9300D000D0CDB7DEB79C838B8325
:102200007C0141E8E40EF11C6C0150E8C50ED11CC4
:102210008C010E571F4F8D579F4F2C018B819C8136
:102220008C579F4F4C0122242A94AB80BC8097E8A6
:10223000A90EB11CEB81FC81EB57FF4FFA83E983B8
:10224000F7018081F6019081891709F4BAC0EB810A
:10225000FC81E80FF11D308037FE6DC0F8019081E0
:10226000891739F0F501208131812F5F3F4F31838C
:102270002083F8018083F2012082832D8076F4018F
:10228000803609F441C0832D829586708E5F8083ED
:10229000F8012081F4018081820F9927991F8138EC
:1022A00091059CF180E8682E621AF894F60140814D
:1022B000F8018081841708F044C0F42FF81B8F2F99
:1022C000F60180837894F80160814617E8F5712C57
:1022D00050E06B817C81CB01860D971D0E94D82533
:1022E000F80160814B815C81460F511DBA01A30149
:1022F0008B819C810E94D825F7018081F801908113
:10230000891BF7018083F8011082F70190819F5F9C
:102310009083F8018081392F381B97FF02C0F701A5
:102320001082F2012081F40190819317A9F03226E6
:10233000F201308285CFF40180818111E6CF3082B5
:10234000A7CF862D840FBCCF461B50E08B819C818C
:10235000860F911DBC01CCCF32122AC04B815C810B
:10236000480F511DCA01E981FA81408151814F5FB7
:102370005F4F51834083F7013081F801308300972C
:10238000B1F20F900F900F900F90DF91CF911F91AE
:102390000F91FF90EF90DF90CF90BF90AF909F9004
:1023A0008F907F906F905F904F903F902F90089507
:1023B000F5018081918101969183808390E080E096
:1023C000DACF90E080E0DDCF8F929F92AF92BF9204
:1023D000CF92DF92EF92FF920F931F93CF93DF93F1
:1023E000C090C602D090C702F601D581D370D061EB
:1023F000882EE89487F887FDDC5F962EE89497F89E
:1024000067FDD85FA42EE894A7F811E147FF10E11B
:10241000B22EE894B7F827FD1E5FF02EE894F7F887
:1024200007FD1C5F0E2D0F77E7FC185FF601C281D8
:102430008381C82788E0C8278681C8278781C82765
:10244000C027CF25CB25CA25C925C825CD27C1271B
:1024500065EE87ED91E00E949E0660E187ED91E0D8
:102460000E949E06F601628187ED91E00E949E0621
:10247000F601638187ED91E00E949E0662E087EDA0
:1024800091E00E949E066D2F87ED91E00E949E06CE
:10249000F601668187ED91E00E949E06F601678154
:1024A00087ED91E00E949E06682D87ED91E00E94E5
:1024B0009E06692D87ED91E00E949E06612F87EDB3
:1024C00091E00E949E066A2D87ED91E00E949E0693
:1024D0006B2D87ED91E00E949E066F2D87ED91E0B8
:1024E0000E949E06602F87ED91E00E949E066C2F51
:1024F0006F7787ED91E00E949E066FEF87ED91E088
:102500000E949E0687ED91E00E94E8109093C7021A
:102510008093C602009711F00E94B90681E0DF9116
:10252000CF911F910F91FF90EF90DF90CF90BF90D0
:10253000AF909F908F9008950F931F93CF93DF9349
:10254000E82FF0E099E0899FD0011124A65DBE4FED
:1025500015962D913C9126173707C0F08B01C82F97
:10256000EE0FFF1FE050FF4F71836083CF5FCC0FF2
:10257000D0E0612FCE010E943F22602FCE01019654
:10258000DF91CF911F910F910C943F22DF91CF915A
:102590001F910F910895893010F40C949C120895A6
:1025A000CF93DF936DE490E080E00E943F226AE5E4
:1025B00081E090E00E943F22CAE2D1E069817A8105
:1025C00088810E94CB12299681E0CB37D807B1F7DA
:1025D000DF91CF9108951F920F920FB60F921124A1
:1025E0002F933F938F939F93AF93BF938091DD027F
:1025F0009091DE02A091DF02B091E0023091DC0206
:1026000023E0230F2D3758F50196A11DB11D20930E
:10261000DC028093DD029093DE02A093DF02B09390
:10262000E0028091E1029091E202A091E302B09178
:10263000E4020196A11DB11D8093E1029093E20294
:10264000A093E302B093E402BF91AF919F918F9169
:102650003F912F910F900FBE0F901F90189526E875
:10266000230F0296A11DB11DD2CF1F920F920FB65C
:102670000F9211242F933F934F935F938F939F93C8
:10268000AF93BF93EF93FF9380911104882309F4D4
:1026900048C088B18F6088B985B1817C85B9E091E7
:1026A0001004F0E0E45FFB4F808125B190E0959548
:1026B0008795959587958E739927822B85B98BB1D0
:1026C000877C8BB9E0911004F0E0E45FFB4F8081E0
:1026D0002BB138E0839FC001112488739927822B86
:1026E0008BB9409110048091120428B1480F5527EE
:1026F000551F81E090E002C0880F991F4A95E2F7CC
:1027000080959095822388B9809110048F5F809383
:1027100010049091100480911104981710F01092F9
:1027200010048091AC029091AD02A091AE02B091E4
:10273000AF020196A11DB11D8093AC029093AD0232
:10274000A093AE02B093AF02FF91EF91BF91AF9112
:102750009F918F915F914F913F912F910F900FBE5D
:102760000F901F9018951F920F920FB60F92112481
:102770002F933F934F935F936F937F938F939F9389
:10278000AF93BF93EF93FF938091B900887F80361A
:1027900009F44AC0F0F5883209F4A7C018F5803171
:1027A00009F49BC0B8F4882309F4F9C0883009F40F
:1027B00094C0FF91EF91BF91AF919F918F917F91C5
:1027C0006F915F914F913F912F910F900FBE0F909E
:1027D0001F901895883109F488C0803251F7809392
:1027E000E00314C0803409F49DC040F48033B9F391
:1027F0008833F9F68093E00385ECB0C0803509F4A6
:1028000085C0883509F496C0883499F60E94B010C6
:10281000D0CF883909F48CC038F5883729F050F4C6
:10282000883611F0803729F683E08093E203109216
:10283000AA0257C0883809F47BC0803919F0803863
:1028400009F0B7CF8091AA02803208F071C0E09100
:10285000AA0281E08E0F8093AA028091BB00F0E073
:10286000E657FD4F80833DC0803B39F0E0F4803A6D
:1028700009F479C0883A09F09CCF84E08093E203A0
:102880001092890210928802E091B803F091B90386
:1028900009958091880281110FC081E080938802A0
:1028A0001092680209C0803C09F4A6CF883C09F464
:1028B000A3CF883B09F07DCFE091890281E08E0FA4
:1028C00080938902F0E0E859FD4F80818093BB003E
:1028D000909189028091880229C08091BD038093E4
:1028E000BB0085EC8093BC0064CF9091DF038091A6
:1028F000DE03981758F5E091DF0381E08E0F809397
:10290000DF03F0E0E254FC4F8081E9CFE091DF0388
:1029100081E08E0F8093DF038091BB00F0E0E254F2
:10292000FC4F80839091DF038091DE039817C8F2FB
:1029300085E8D8CFE091DF0381E08E0F8093DF033D
:102940008091BB00F0E0E254FC4F80838091E10372
:1029500081115CCF81E08093BC0384EA8093BC004A
:102960001092E20326CF85EC8093BC001092E20324
:102970008091AA02803230F4E091AA02F0E0E6579A
:10298000FD4F10826091AA0270E0E091B603F091D1
:10299000B7038AE892E009951092AA020ACF109232
:1029A000E00334CF1F920F920FB60F921124DF92E3
:1029B000EF92FF920F931F932F933F934F935F9349
:1029C0006F937F938F939F93AF93BF93CF93DF9337
:1029D000EF93FF93B19A80911E0390911F0380544F
:1029E0009C4F90931F0380931E0380911E03909130
:1029F0001F0390938900809388008091660288234A
:102A000071F010926602189B26C081E08093240327
:102A1000B59A80916F00806280936F001CC0809196
:102A200023038F5F8093230380912403843009F074
:102A300043C080912303893030F580911A0390E0E0
:102A40009595879580931A03189B05C080911A036A
:102A5000806880931A03FF91EF91DF91CF91BF912E
:102A6000AF919F918F917F916F915F914F913F9126
:102A70002F911F910F91FF90EF90DF900F900FBE5D
:102A80000F901F901895B59A80916F008062809387
:102A90006F008091180390911903189929C0FC01C7
:102AA000E957FF4F80819181019691838083109235
:102AB000230381E080932403809124038330E9F58C
:102AC000E0912103F091220380812091200333B112
:102AD00090E0022E02C0959587950A94E2F783272D
:102AE00080FD11C01092230382E08093240325C04F
:102AF00060911A030E949E0680E090E0892BB9F253
:102B00000E940000D4CF80912303893008F043C095
:102B100030911A0381E090E001C0880F2A95EAF70E
:102B2000908130FF36C080958923808380911A037D
:102B300090E09595879580931A03809124038230C5
:102B400099F48091230381118EC0E0912103F091CB
:102B5000220380819091200321E030E001C0220F08
:102B60009A95EAF7822B808380912403813009F0C3
:102B700072CF80912303882309F44ACF80912303E5
:102B8000883308F468CF1092240380916F008D7F02
:102B900043CF892BCACF80912303893059F43081E8
:102BA00081E090E001C0880F2A95EAF780958323A1
:102BB0008083C3CF809125038F5F809325039091FD
:102BC0002603891750F51092230380911C039091DE
:102BD0001D03A0912503A80FB92FB11D8C918093DF
:102BE0001A03808141E050E001C0440F2A95EAF7C2
:102BF000842B808380918400909185008A5A9C4F19
:102C000090931F0380931E0380911E0390911F03D6
:102C1000909389008093880090CF81E080931B037C
:102C200000911C0310911D03E0901803F09019030C
:102C3000C8010E94AD06D82ED0E0C0E0CD1548F402
:102C4000F801EC0FFD1F6081C7010E949E062196CE
:102C5000F5CF80E090E0892B11F00E9400001092E7
:102C6000230381E042CF809123038F3008F47CCF8F
:102C7000E0912103F091220320813091200381E033
:102C800090E001C0880F3A95EAF78095822380830F
:102C90001092230381E080932403E0911803F091C4
:102CA0001903E357FF4F80819181019691838083BF
:102CB0005BCF1F920F920FB60F9211248F939F93A9
:102CC000EF93FF93B59AEFE6F0E080818F7D8083EC
:102CD000809186009091870080529E4F90931F03B1
:102CE00080931E0380911E0390911F03909389008F
:102CF00080938800B19A80818260808384E0809391
:102D000024031092230381E080936602FF91EF91E8
:102D10009F918F910F900FBE0F901F901895893043
:102D200028F529E0829FF0011124E65DFE4F8581A0
:102D30009681803127E29207C8F4883E23E092070B
:102D4000B8F484369105B0F40A97B0F481E090911C
:102D5000BB02891B990B8530910580F4880F991F60
:102D6000FC01E05EFE4F80819181089585E0EFCF08
:102D700084E0EDCF83E0EBCF82E0E9CF90E080E02C
:102D800008950F931F93CF93DF9301E714E0F801A9
:102D90001382128288EE93E0A0E0B0E084839583F2
:102DA000A683B78381EB91E091838083CDEBD4E060
:102DB00086E0888380E8898388E08A831B821C827E
:102DC0001D821E8286E00E94BC010E944C026B8321
:102DD0007C838D839E83EBEBF4E010821182109252
:102DE00012041092110410921004ECE0F4E0CFEF02
:102DF000C083C183C283C38360E080E00E94270157
:102E0000E2EBF4E010821182128213828AE090E0F9
:102E100095838483168217821086E9EAF4E0108293
:102E20001182128213829583848316821782108600
:102E3000E0EAF4E010821182128213829583848387
:102E4000168217821086E7E9F4E01082118212825E
:102E5000138295838483168217821086EEE8F4E04D
:102E600010821182128213829583848316821782C4
:102E70001086E5E8F4E010821182128213829583B5
:102E80008483168217821086EDE7F4E02DE3208319
:102E9000178306831182C283C38315821482EEE5F1
:102EA000F4E0118A108A128AE4E1F4E013821282BB
:102EB000128E148A2FE024832EE025832DE02683B2
:102EC0002CE027832BE020872AE0218729E0228736
:102ED000178621E0208B22E0218B23E0228B24E047
:102EE000238B23EC31E031832083148E158E168ED4
:102EF000178E91A380A312A213A215A216A217A245
:102F000010A692A781A713A614A616A617A610AA04
:102F100011AA93AB82AB14AA15AA17AA10AE11AED0
:102F200012AE94AF83AF15AE16AE10925404109249
:102F300055041092560410925704909359048093AC
:102F4000580410925A0410925B048CE1809313048D
:102F5000DF91CF911F910F910895CF93DF93CDB75C
:102F6000DEB762970FB6F894DEBF0FBECDBF789480
:102F700084B5826084BD84B5816084BD85B582607E
:102F800085BD85B5816085BD80916E00816080932F
:102F90006E00109281008091810082608093810098
:102FA00080918100816080938100809180008160A8
:102FB000809380008091B10084608093B100809103
:102FC000B00081608093B00080917A00846080932B
:102FD0007A0080917A00826080937A0080917A00F2
:102FE000816080937A0080917A00806880937A0073
:102FF0001092C10080E0E82E81E0F82E92E0C92E08
:10300000D12CC6010E943722182FC60101960E94BA
:103010003722212F30E0322F2227820F932F911D4C
:10302000D7018D939D937D01B2E0CB0ED11CE4E1DD
:10303000CE16D10431F780910C0190910D010697C5
:1030400028F466E070E086E00E949C1280910E01F8
:1030500090910F010C9711F00E94D0120E94AB0EBC
:10306000E7E2F3E08FE8DF011D928A95E9F787E058
:103070000E94BC01E3E7F1E02491EFE5F1E0E49187
:10308000F0E0EE0FFF1FEC5BFE4F4591549180E0A6
:1030900091E031E0291741F08F5F932F082E01C096
:1030A000990F0A94EAF7F6CF509322034093210335
:1030B0008093200387E293E0909319038093180391
:1030C0002098E0912103F091220320813091200388
:1030D00081E090E001C0880F3A95EAF7809582235D
:1030E00080831092800081E08093810010922403FD
:1030F000B59A80916F00806280936F00809181000B
:10310000887F81608093810000910201109103010A
:103110000115110509F47DC08091100182FD79C06F
:103120008091100182FD91C00E94A20389E30E9458
:103130001B0181E794E00E942406811124C067E00E
:1031400070E082EB94E00E94BE0266E070E089EAE3
:1031500094E00E94BE0265E070E080EA94E00E9484
:10316000BE0264E070E087E994E00E94BE0261E084
:1031700070E08EE894E00E94BE0270E060E085E8B6
:1031800094E00E94BE021092D8021092D9021092CE
:10319000D4021092D5021092D6021092D70261E0AA
:1031A00081E00E942701A8E02A2E312CB0E64B2EA8
:1031B000BAEE5B2E612C712CF0E08F2EF0E09F2E8A
:1031C0000E944C020091C0041091C1042091C204DD
:1031D0003091C304601B710B820B930B6531710539
:1031E0008105910508F415C10E944C026093C0044A
:1031F0007093C1048093C2049093C3041091BE04E1
:103200008091BF04113C08F4C3C081958093BF0432
:10321000C2C010920603109205031092070380911A
:1032200010011092170384FF03C088E08093070306
:103230008BEB89838BE78A831B82CE0101960E94E8
:10324000B9060115110509F06BCF1092CF0210924B
:10325000B2021092B1021092CB021092CC021092E4
:10326000CD021092CE021092D002012B21F080915B
:10327000100182FF59CF0E94A2038DE30E941B011F
:1032800081E794E00E942406811103C081E08093CD
:10329000CA0280E70E941B0181E794E00E94240695
:1032A000811142CF81E08093B00280916E049091B1
:1032B0006F04009711F00E944F2586E090E00E9475
:1032C000B3248C0180E7F801808381E794E0928346
:1032D0008183138280E290E09583848310936F044E
:1032E00000936E040E94A20381E0D80113968C9390
:1032F000C8010E947F06882309F416CF81E2898BDA
:1033000041E050E0BE016F5E7F4F80916E0490916E
:103310006F040E94F90710925F0410925E041092ED
:10332000610410926004109263041092620410927F
:10333000650410926404109267041092660410925F
:1033400069041092680410926B0410926A0410923F
:103350006D0410926C040E942D0881E8898341E07D
:1033600050E0BE016F5F7F4F80916E0490916F04BB
:103370000E94F9078FEE898341E050E0BE016F5F44
:103380007F4F80916E0490916F040E94F907CCCE1C
:10339000103208F43ACF8091BF04180F1093BE0486
:1033A0000091BD04802F0E94BC01111105C060E096
:1033B000802F0E94DB012DC01F3F11F461E0F8CF88
:1033C000E02FF0E0E05DFE4FE491E33009F43CC40F
:1033D00040F4E130D1F0E23009F431C417FDEECF12
:1033E000E6CFE73009F43CC4E83009F441C4E430E6
:1033F000A9F780918000806280938000812F90E007
:1034000090938B0080938A0004C084B5806884BD4B
:1034100017BD0E944C020091B7021091B802209192
:10342000B9023091BA02601B710B820B930B6E379D
:1034300071058105910528F10E944C026093B70245
:103440007093B8028093B9029093BA029091B60239
:1034500081E098279093B602992399F09091B50254
:1034600098279093B502992361F09091B402982720
:103470009093B402992329F09091B3028927809305
:10348000B3020E94AB0E8091C1028130E1F565E08C
:103490008DE594E00E94A008B0E28B9FC00111244A
:1034A0008095909561E085FD60E084E194E00E9464
:1034B0005D0903E214E0F12CE12CEFE1DE2ECE2CCD
:1034C000F80161918F0180E0603120F48FE294E097
:1034D0000E94A00890E002C0880F991FCA94E2F7EA
:1034E00080959095D822FFEFEF1AFF0A25E0E216AB
:1034F000F10429F78091C002D110C2C3882309F4D6
:103500000EC41092C00287E293E00E94E810FC0112
:103510009093C7028093C602892B09F469C28091F7
:10352000020190910301892B21F08091100182FF0B
:1035300043C082818B3709F03FC08081877F873EFF
:10354000D9F5828586FD04C08091070383FFFFC5FE
:103550008091050390910603181619066CF58EE00C
:10356000A8E0B3E001900D928A95E1F780910D03F8
:103570008093170381E00E94E90C81149104B1F05B
:103580008091070382FF12C080910D0340E8849F61
:103590009001112480910C03820F932F911DAFEFA6
:1035A000BFE3A81BB90BCD010E940000E2E0F0E0F0
:1035B000F0930603E09305030091C6021091C70241
:1035C000C8010E94AD06803109F012C2D8018C9169
:1035D000853E09F00DC214968C911497823009F043
:1035E00007C216962C9116978091000190910101C7
:1035F0002817190609F0E3C117962C9117978091A7
:103600000E0190910F012817190609F0D8C11596DF
:103610008C91159790E09C01E4E0220F331FEA950E
:10362000E1F720781996AC901997E894A7F82A2921
:1036300030E0322F222745E0880F991F4A95E1F7A5
:1036400080781896AC90E894A7F8A82AA20EB32E1A
:10365000B11C6501B1E0CB1AD108CA8AEC2DE93062
:1036600050F429E0C29EF0011124E65DFE4F31E0E6
:103670008781813009F030E0D80113968C91813038
:10368000F1F5B9E0CB16D104D0F5F801828590E0D0
:1036900063856F77AC015695542F4427579547950E
:1036A000262F240F332309F459C536E0880F991FBC
:1036B0003A95E1F7807864856F77862B682F70E004
:1036C000762F6627620F711D8C2D0E94CB12E09120
:1036D000C602F091C702838180648383FA894FEF29
:1036E000F93030F4F601EE0FFF1FE050FF4F40813C
:1036F000E12C00E020E060E08A2D0E94E411E091DE
:10370000C602F091C70283818230B9F429E0C21663
:10371000D10498F482E483833A894FEF393030F44E
:10372000F601EE0FFF1FE050FF4F4081E12C00E05B
:1037300020E060E08A2D0E94E411E091C602F09141
:10374000C7028381833009F04BC049E0C416D1041D
:1037500008F046C0628570E0CB019695982F8827C7
:1037600097958795992723852F77280F392F311D16
:1037700016E0660F771F1A95E1F760787727848542
:103780008F77682B5A898FEF9FEF593038F4F60105
:10379000EE0FFF1FE050FF4F8081918126233723DA
:1037A000232B09F4DDC4682B792B8C2D0E94CB12BE
:1037B000E091C602F091C7028381806483838A8985
:1037C0004FEF893030F4F601EE0FFF1FE050FF4F4E
:1037D0004081E12C00E020E060E08A2D0E94E411AD
:1037E000E091C602F091C7028381853009F07FC065
:1037F00099E0C916D10408F07AC0828590E08C0166
:1038000026E0000F111F2A95E1F7007864856F7795
:10381000062BBC0135E0660F771F3A95E1F7162FAE
:10382000107865856F77162BBC0144E0660F771F13
:103830004A95E1F7A62FA078EA2E66856F77E62AEB
:1038400063856F779695982F882797958795680F4A
:1038500070E08C2D0E94CB12FF24F394FC0C602F9F
:1038600070E08F2D0E94CB1202E00C0D612F70E0F2
:10387000802F0E94CB1213E01C0D6E2D70E0812F63
:103880000E94CB12E091C602F091C702838180644E
:103890008383BA894FEFB93030F4F601EE0FFF1F82
:1038A000E050FF4F4081E8E02FEFEF1538F0EF2DAB
:1038B000F0E0EE0FFF1FE050FF4F2081093008F0CD
:1038C00054C4E02FF0E0EE0FFF1FE050FF4F0081E7
:1038D000EE24EA94193038F4E12FF0E0EE0FFF1FE8
:1038E000E050FF4FE08060E08A2D0E94E411E091FB
:1038F000C602F091C70283818630B1F529E0C21675
:10390000D10490F586E483833A894FEF393030F45F
:10391000F601EE0FFF1FE050FF4F4081E1E0EC0D9C
:103920002FEFE93030F4F0E0EE0FFF1FE050FF4FD3
:103930002081E2E0EC0D0FEFE93030F4F0E0EE0F23
:10394000FF1FE050FF4F0081E3E0EC0DEE24EA940E
:10395000E93030F4F0E0EE0FFF1FE050FF4FE08061
:1039600060E08A2D0E94E411E091C602F091C70246
:103970008381883061F488E4838340910E01E42ED2
:103980000091000120E06DE08AE30E94E411E091E3
:10399000C602F091C70283818F3089F40E94D01251
:1039A000E091C602F091C702838180648383E12C99
:1039B00000E020E040E06B2D8A2D0E94E411E091B0
:1039C000C602F091C7028681811112C087818111E0
:1039D0000FC08381873061F487E4838340910E01B7
:1039E000E42E0091000120E06DE08AE30E94E411E2
:1039F0008091020190910301892B21F080911001A7
:103A000082FF9BC00E944C020091C2021091C3022F
:103A10002091C4023091C502AB01BC01401B510B87
:103A2000620B730B433451056105710508F485C0C1
:103A3000D901C8018D5B9F4FAF4FBF4F8093C2022A
:103A40009093C302A093C402B093C5028091050372
:103A500090910603029709F05BC080910C0390914E
:103A60000B03890F87FFFCC48F7780930C03809131
:103A70000D038F5F80930D034091070387FD16C0F0
:103A800043FFF0C490E02091170330E02A5F3F4FDE
:103A9000281739070CF0E6C427E730E040FF02C0E2
:103AA00028E730E0281739070CF4DCC48DE6809352
:103AB0000C03842F8170885880930D0380910E032E
:103AC0008F5F8F3708F053C380930E0341FF63C3AA
:103AD0008FEE8093080388E093E00E94B90681147A
:103AE0009104B1F08091070382FF12C080910D0311
:103AF00040E8849F9001112480910C03820F932F42
:103B0000911DAFEFBFE3A81BB90BCD010E940000D0
:103B10008091050390910603892B79F48BEB8983BF
:103B20008BE78A831B82CE0101960E94B906E1E0F1
:103B3000F0E0F0930603E09305038091D002882320
:103B4000C9F18091020190910301892B21F08091AC
:103B5000100182FF2FC02091CF0280E6C82E8AEE8E
:103B6000D82EE12CF12C222349F030E050E040E047
:103B7000C301B2010E948B2469017A010E944C02A8
:103B80000091CB021091CC022091CD023091CE0257
:103B9000601B710B820B930BC616D706E806F9065D
:103BA00048F48BEB89838BE78A831B82CE010196D5
:103BB0000E94B9068091CA02882309F4FEC261E01E
:103BC00080917D040E94CA041092BB038093BA03C3
:103BD000813009F4E4C282E890E0909382048093FB
:103BE000810480917E0482FDE8C28091C90288230D
:103BF00009F4E6C2E090D302E092DB02F090D20238
:103C0000F092DA02009102011091030101151105F1
:103C100009F0EBC28091D1028111E9C38FEB80934F
:103C20000C0480930D0480930E0480930F0480E0B5
:103C300090E0892B09F4C4CA0E940000BDCA84B573
:103C4000806284BD18BDE5CB809180008068809340
:103C50008000812F90E09093890080938800D9CBD9
:103C60008091B00080688093B0001093B300D1CBF6
:103C70008091B00080628093B0001093B400C9CBF3
:103C8000D81609F44CC08091BF02D092C0028111B5
:103C900005C0D2FE38CC0E94B20B35CC813001F584
:103CA000D3FE05C00E948E0E1092BF022CCCD2FE15
:103CB00003C00E94A20B27CCD1FE31C084E194E066
:103CC0000E947A0B60E080E00E94480B89E291E05C
:103CD0000E942B0B0E9443108AE08093BF0213CCFA
:103CE0008230C9F4D3FCD7CFD1FE03C00E94920B1F
:103CF0000ACCD2FE08CC87E08093BF0284E194E036
:103D00000E947A0B60E080E00E94480B8FE191E016
:103D10000E942B0BF8CB8730E1F4D3FCCACF809103
:103D2000BF02873009F0F7C161E080E00E94480BD4
:103D30008091D102882309F4EAC18091D3021091C5
:103D4000D202873108F4EFC183ED91E00E94361072
:103D5000EEC18A3019F4D4FEE2CF9DCF843108F44D
:103D6000BAC190911304981708F4A2C11CEE180F61
:103D7000D0FE4FC00091BE02002309F4C4CB609175
:103D8000BC027091BD02E12EF12C1630E9F4672BD4
:103D9000A9F40E94D012F701EE0FFF1FE050FF4F71
:103DA000808191810E947C0D61E08AE00E94480B35
:103DB000002309F439C388E191E038C366E070E07C
:103DC00086E00E949C12E7CF89E08E9DF0018F9DD6
:103DD000F00D1124E65DFE4F838194816817790709
:103DE00008F42CC3858196818617970708F426C3AB
:103DF0008085811123C3812F0E94CB12193058F284
:103E00008FEF9FEF0E947C0D61E08AE00E94480BDB
:103E1000D2CFD4FE0EC08091BE02882309F466CFB3
:103E20001092BE02E12F193008F4C6C08FEF9FEF49
:103E3000CAC0D1FE57C08091BE0281111FC0193087
:103E4000E8F4E12FF0E039E0139FD0011124A65DE2
:103E5000BE4F18968C91811111C0EE0FFF1FE050DC
:103E6000FF4F808191819093BD028093BC0221E03D
:103E70002093BE021092BB020E947C0D8091BE0274
:103E8000882309F440CB0091BB020F5F0093BB0273
:103E9000193048F449E0149FF0011124E65DFE4F0B
:103EA0008781823061F0812F0E94830790E0019624
:103EB0000817190631F481E08093BB0202C0093073
:103EC000D1F361E08091BB020E94480B609129040C
:103ED000862F8260809329046A6084E194E00E94C6
:103EE000450B11CBD3FE72C02091BE02222309F4F0
:103EF00056C0A090BC02B090BD028FEF9FEF19306A
:103F0000F0F5C12ED12C59E0159FF0011124E65D8A
:103F1000FE4F0781023080F4812F0E948F168A0D98
:103F20009B1D9093BD028093BC028A159B0520F4D3
:103F3000B092BD02A092BC022091BC023091BD02A1
:103F4000023099F48091BB02D101A81BB109E1E0D4
:103F5000F0E002C0EE0FFF1FAA95E2F7CF01822B1F
:103F6000932B9093BD028093BC0289E08C9DF0015D
:103F70008D9DF00D1124E65DFE4F85819681209187
:103F8000BC023091BD028217930720F4B092BD02AB
:103F9000A092BC028091BC029091BD0214C08F5FC0
:103FA0008093BF02891710F09093BF02E091BF0287
:103FB000E451E93008F03ACFF0E0EE0FFF1FE05097
:103FC000FF4F808191810E947C0D9DCAD2FE3AC232
:103FD0009091BE02992309F461C0C090BC02D090B8
:103FE000BD0290E080E0193008F041C0A12EB12C54
:103FF00029E0129FF0011124E65DFE4F0781023097
:1040000088F4812F0E948F16A601481B590B5093EC
:10401000BD024093BC02C416D50620F4D092BD0266
:10402000C092BC022091BC023091BD020230A9F4C2
:104030008091BB02D101A81BB109E1E0F0E002C010
:10404000EE0FFF1FAA95E2F7CF018095909582238E
:1040500093239093BD028093BC0289E08A9DF00176
:104060008B9DF00D1124E65DFE4F8381948120919C
:10407000BC023091BD022817390720F4D092BD024E
:10408000C092BC028091BC029091BD02019609F0E1
:1040900081CFD092BD02C092BC027CCF8150809370
:1040A000BF02833109F082CF84E18093BF027ECFCB
:1040B000883C89F4D2FE03C00E94820B24CAD4FC3F
:1040C000F8CDD1FE20CA84E18093BF028091000127
:1040D0009091010178CF823D09F0BAC1D3FC06CEA0
:1040E000D4FCE7CDD1FE0FCA83ED8093BF0260E020
:1040F00088E00E94480B80E20E94220B2FEF3FEFE6
:104100003093BD022093BC020E94EC0FFCC98BE0EF
:1041100091E00E942B0B8091BF028A3009F0F3C915
:104120000E944310F0C962E090E00E944E0D8AE3C5
:104130000E94220B1C3330F462E0812F90E00E9439
:104140004E0DE9CF83ED91E00E943610E4CF23E0DD
:1041500030E030930603209305032ECA80E0AECAF8
:10416000609570956823792320CB0FEFB1CB83E462
:1041700080930E03809110038F5F87FD03C08093AF
:104180001003A4CC88E680931003809111038F5F05
:10419000809311039BCC80E00E94E90CA0CC80911D
:1041A000830490918404DC01ED91FC910284F385F9
:1041B000E02D099580937E0416CD1092C9021ACD88
:1041C00081E08093C9029091C802913009F482E0A5
:1041D0008093C8028091CA02882309F40BCD809194
:1041E000C8028C6F0E94270605CD82EB94E00E94E6
:1041F000FC0289EA94E00E94FC0280EA94E00E94BA
:10420000FC0287E994E00E94FC028EE894E00E94A0
:10421000FC0285E894E00E94FC0282EB94E00E949C
:10422000F402882329F081E08093D9021092D80209
:1042300082EB94E00E94EA02882321F01092D802D7
:104240001092D90289EA94E00E94F402882329F0AE
:104250001092D90281E08093D80289EA94E00E940A
:10426000EA02882321F01092D8021092D90287E93D
:1042700094E00E94EA02882341F01092D402109246
:10428000D5021092D6021092D702A090D402B0901C
:10429000D502C090D602D090D702B091D902BA8B85
:1042A000A114B104C104D104E1F00E944C026A19C6
:1042B0007B098C099D09613D77408105910588F056
:1042C0001092D4021092D5021092D6021092D70208
:1042D000FA89F1111092DB028091D80281111092BB
:1042E000DA022A89222331F180EA94E00E94F40262
:1042F000882329F08091DB02865F8093DB0287E9C7
:1043000094E00E94F402882379F00E944C026093AA
:10431000D4027093D5028093D6029093D7028091F5
:10432000DB028F5F8093DB028091DB02883110F02B
:104330001092DB028091D802882331F180EA94E068
:104340000E94F402882329F08091DA02865F80932C
:10435000DA0287E994E00E94F402882379F00E944F
:104360004C026093D4027093D5028093D60290934E
:10437000D7028091DA028F5F8093DA028091DA02AD
:104380008C3310F01092DA02D090DA02013011056D
:1043900089F58EE894E00E94F402882319F0D39402
:1043A000D092DA028EE894E00E94EA02882329F093
:1043B0008091DA028F5F8093DA028091DA028C3387
:1043C00048F08091DB021092DA028F5F883108F5A5
:1043D0008093DB024091DB022091DA02E41202C0FA
:1043E000F21629F001E061E081E00E94C20B0E9418
:1043F000A4071DCC0230110501F785E894E00E9466
:10440000F402882319F0D394D092DA0285E894E07C
:10441000CBCF1092DB02DECF8FEF9FEF0E947C0D9F
:1044200061E08AE00E94480B81E191E00E942B0B41
:1044300061E08091BB020E94480B65C8193060F7AB
:1044400000E0A9CC883C09F43ACE823D09F448CE7C
:10445000833D09F064CCD4FC2FCED2FE60CC54CE88
:1044600080930C038114910409F03CCB66CBF9993D
:10447000FECF92BD81BDF89A992780B50895262F69
:10448000F999FECF1FBA92BD81BD20BD0FB6F89439
:10449000FA9AF99A0FBE019608955058BB27AA2799
:1044A0000E9465220C94D8230E94CA2338F00E94EF
:1044B000D12320F039F49F3F19F426F40C94C7233C
:1044C0000EF4E095E7FB0C94C123E92F0E94E92349
:1044D00058F3BA17620773078407950720F079F439
:1044E000A6F50C940B240EF4E0950B2EBA2FA02DFC
:1044F0000B01B90190010C01CA01A0011124FF2791
:10450000591B99F0593F50F4503E68F11A16F0408B
:10451000A22F232F342F4427585FF3CF469537958A
:104520002795A795F0405395C9F77EF41F16BA0B4F
:10453000620B730B840BBAF09150A1F0FF0FBB1FFD
:10454000661F771F881FC2F70EC0BA0F621F731F46
:10455000841F48F4879577956795B795F7959E3FA3
:1045600008F0B0CF9395880F08F09927EE0F979534
:10457000879508950E949D2308F481E008950E9484
:10458000D3220C94D8230E94D12358F00E94CA232E
:1045900040F029F45F3F29F00C94C12351110C9491
:1045A0000C240C94C7230E94E92368F39923B1F3E8
:1045B000552391F3951B550BBB27AA276217730749
:1045C000840738F09F5F5F4F220F331F441FAA1FDD
:1045D000A9F335D00E2E3AF0E0E832D09150504099
:1045E000E695001CCAF72BD0FE2F29D0660F771F47
:1045F000881FBB1F261737074807AB07B0E809F02D
:10460000BB0B802DBF01FF2793585F4F3AF09E3FB1
:10461000510578F00C94C1230C940C245F3FE4F313
:10462000983ED4F3869577956795B795F7959F5FF4
:10463000C9F7880F911D9695879597F90895E1E040
:10464000660F771F881FBB1F621773078407BA079F
:1046500020F0621B730B840BBA0BEE1F88F7E095FA
:1046600008950E94F12388F09F5798F0B92F992759
:10467000B751B0F0E1F0660F771F881F991F1AF04D
:10468000BA95C9F714C0B13091F00E940B24B1E083
:1046900008950C940B24672F782F8827B85F39F082
:1046A000B93FCCF3869577956795B395D9F73EF4E6
:1046B00090958095709561957F4F8F4F9F4F08958E
:1046C000E89409C097FB3EF49095809570956195AC
:1046D0007F4F8F4F9F4F9923A9F0F92F96E9BB2762
:1046E0009395F695879577956795B795F111F8CFDE
:1046F000FAF4BB0F11F460FF1BC06F5F7F4F8F4F49
:104700009F4F16C0882311F096E911C0772321F03E
:104710009EE8872F762F05C0662371F096E8862FD6
:1047200070E060E02AF09A95660F771F881FDAF72D
:10473000880F9695879597F90895990F0008550F5A
:10474000AA0BE0E8FEEF16161706E807F907C0F017
:1047500012161306E407F50798F0621B730B840B1F
:10476000950B39F40A2661F0232B242B252B21F4F9
:1047700008950A2609F4A140A6958FEF811D811D99
:10478000089597F99F6780E870E060E008959FEFD3
:1047900080EC089500240A941616170618060906D8
:1047A000089500240A9412161306140605060895A7
:1047B000092E0394000C11F4882352F0BB0F40F42F
:1047C000BF2B11F460FF04C06F5F7F4F8F4F9F4F6F
:1047D000089557FD9058440F551F59F05F3F71F0F1
:1047E0004795880F97FB991F61F09F3F79F0879558
:1047F0000895121613061406551FF2CF4695F1DFE1
:1048000008C0161617061806991FF1CF8695710570
:10481000610508940895E894BB2766277727CB01A4
:1048200097F908950E9425240C94D8230E94CA2346
:1048300038F00E94D12320F0952311F00C94C1236D
:104840000C94C72311240C940C240E94E92370F3C8
:10485000959FC1F3950F50E0551F629FF001729F25
:10486000BB27F00DB11D639FAA27F00DB11DAA1F34
:10487000649F6627B00DA11D661F829F2227B00D81
:10488000A11D621F739FB00DA11D621F839FA00D0C
:10489000611D221F749F3327A00D611D231F849F5C
:1048A000600D211D822F762F6A2F11249F575040B3
:1048B0009AF0F1F088234AF0EE0FFF1FBB1F661F2E
:1048C000771F881F91505040A9F79E3F510580F0F7
:1048D0000C94C1230C940C245F3FE4F3983ED4F372
:1048E000869577956795B795F795E7959F5FC1F79B
:1048F000FE2B880F911D9695879597F90895991B22
:1049000079E004C0991F961708F0961B881F7A95C6
:10491000C9F780950895A1E21A2EAA1BBB1BFD01C1
:104920000DC0AA1FBB1FEE1FFF1FA217B307E4078E
:10493000F50720F0A21BB30BE40BF50B661F771FE6
:10494000881F991F1A9469F76095709580959095C6
:104950009B01AC01BD01CF010895EE0FFF1F059033
:10496000F491E02D09940F931F93CF93DF9382303E
:10497000910510F482E090E0E091C604F091C70444
:1049800030E020E0B0E0A0E0309799F42115310547
:1049900009F44AC0281B390B24303105D8F58A8127
:1049A0009B816115710589F1FB0193838283FE016F
:1049B00011C0408151810281138148175907E0F0ED
:1049C0004817590799F4109761F012960C931297B3
:1049D00013961C933296CF01DF91CF911F910F91C7
:1049E00008950093C6041093C704F4CF2115310530
:1049F00051F04217530738F0A901DB019A01BD01BC
:104A0000DF01F801C1CFEF01F9CF9093C704809384
:104A1000C604CDCFFE01E20FF31F81939193225084
:104A2000310939832883D7CF2091C4043091C5043C
:104A3000232B41F420911401309115013093C504CA
:104A40002093C404209112013091130121153105E6
:104A500041F42DB73EB74091160150911701241B28
:104A6000350BE091C404F091C504E217F307A0F4FC
:104A70002E1B3F0B2817390778F0AC014E5F5F4FB4
:104A80002417350748F04E0F5F1F5093C50440931D
:104A9000C404819391939FCFF0E0E0E09CCFCF934B
:104AA000DF930097E9F0FC01329713821282A09104
:104AB000C604B091C704ED0130E020E01097A1F4E6
:104AC00020813181820F931F2091C4043091C5044D
:104AD0002817390709F061C0F093C504E093C404B6
:104AE000DF91CF910895EA01CE17DF07E8F54A81FB
:104AF0005B819E0141155105B1F7E901FB83EA8312
:104B000049915991C40FD51FEC17FD0761F48081BD
:104B100091810296840F951FE90199838883828190
:104B200093819B838A83F0E0E0E012968D919C91C3
:104B300013970097B9F52D913C911197CD010296ED
:104B4000820F931F2091C4043091C50428173907A0
:104B500039F6309751F51092C7041092C604B093FD
:104B6000C504A093C404BCCFD383C28340815181C8
:104B7000840F951FC817D90761F44E5F5F4F888176
:104B80009981480F591F518340838A819B81938368
:104B900082832115310509F0B0CFF093C704E0936B
:104BA000C6049ECFFD01DC01C0CF13821282D7CF95
:104BB0006817790768F4FB01DC01E40FF51FA40F07
:104BC000B51F02C002900E9241505040D8F7089590
:104BD0000C94EA25FB01DC0102C001900D924150CA
:0A4BE0005040D8F70895F894FFCF75
:104BEA00FFFFFFFFFFFFFFFFFFFFFFFFFFFFFFFFCB
:104BFA00FFFF0000C80480000000400014005400B9
:104C0A0001000A006400E803102700010001007E89
:104C1A000000000100000000020000000200000085
:104C2A000000000001030000000000000001040071
:104C3A000000000000000105000000000000000163
:104C4A00060600000006000000070C000C000C001D
:104C5A000001081C000000FF000200C0F9A4B0997E
:104C6A009282F880908883A7A1868EC289F9F189F9
:104C7A00C7FFABC08C98AF9287C1C1FF8991A4FFCF
:104C8A00BF7FADB7ACC69BF0DCF7E3CF9C0000005A
:104C9A0000F005C305F6079905BC05A9059A0500A4
:104CAA000000001C0B5802F607F5074F00450031BB
:064CBA000030003F3F0046
:00000001FF
