:100000000C94F1000C9419010C9419010C94190131
:100010000C9419010C9419010C9419010C9480137F
:100020000C9419010C9419010C94A4160C941D1530
:100030000C9419010C9419010C9419010C941901D8
:100040000C9436130C9419010C9419010C94190199
:100050000C9419010C9419010C9419010C941901B8
:100060000C94FE130C9419015374617475733F0062
:10007000496E626574726965626E61686D653F00A4
:1000800043563F004932432D5363616E3F0066651E
:10009000727469670030780056657273696F6E20FC
:1000A000004E6562656E756872002A2A2A2A003140
:1000B0003A002D002D2D2D003F3F3F00436F6E660F
:1000C0006967206C0053572D494400566572736967
:1000D0006F6E005265736572766500526573657266
:1000E0007665005265736572766500526573657258
:1000F00076650042412F4D6F6475730044657669E3
:100100006365494400726F004356002D2D3A2D2D32
:10011000006661696C65640073746F7265640046A3
:10012000617374436C6F636B005374617475730017
:1001300000000008000201000003040700000000A6
:100140000000000000000000250028002B00000037
:100150000000240027002A0004040404040404040A
:100160000202020202020303030303030102040862
:100170001020408001020408102001020408102011
:100180000086227E6DD24620290B217010408052BD
:100190003F065B4F666D7D077F6F090D614843D356
:1001A0005F777C395E79713D76301E753815373F43
:1001B000736B336D783E3E2A766E5B39640F23088D
:1001C000025F7C585E7B716F74100C753014545C48
:1001D0007367506D781C1C14766E5B46307001009E
:1001E0000C1711241FBECFEFD8E0DEBFCDBF11E04A
:1001F000A0E0B1E0EEE5FCE402C005900D92A63D62
:10020000B107D9F724E0A6EDB1E001C01D92AA3CE8
:10021000B207E1F710E0C1EFD0E004C02197FE0182
:100220000E94E724C03FD107C9F70E94F8170C9439
:100230002D260C94000091E09093EA0380930C0427
:100240001092EB0310920D04089508950895F89408
:100250008093BD046093BE0484E080931304909166
:100260001304992381F094B19E6394B997B19F6070
:1002700097B99AB198639AB9662329F090911304BB
:10028000891B809314041092B0008DE08093B1001C
:1002900089EF8093B30082E0809370007894089592
:1002A000843054F4082E000C990BDC01A25FBB4F84
:1002B000633318F08FEF8C93089561110DC0209176
:1002C000BD04211107C0209113042150330B2817BE
:1002D000390781F780ECEFCFE62FF0E0E558FE4FCD
:1002E0008081E9CFCF9390ED960F9A3060F4C09162
:1002F000BD0421E02093BD04692F0E945001C093EA
:10030000BD04CF9108959FEB960F9A3120F4675367
:10031000CF910C945001E82FF0E0E25FFB4F603288
:1003200011F48FEF0FC08FEB6D3261F08FE76E32FB
:1003300049F08DEA6F3231F087EB6D3319F08CEABA
:100340006F3379F78083DDCF8530A8F4262F2052D4
:10035000330BF901E058FE4FE491A82FB0E0AA0F4B
:10036000BB1FA05ABB4F30E8439FA0011124E42BD0
:10037000F0E0ED93FC93089590E0FC01E459FE4F0A
:100380002491885A9E4FFC018491882399F090E033
:10039000880F991FFC01E25BFE4FA591B491FC010F
:1003A000EC5BFE4F859194918FB7F894EC91E22B22
:1003B000EC938FBF089590E0FC01E05DFE4F249127
:1003C000FC01E459FE4F3491FC01E85AFE4FE491E0
:1003D000EE23C9F0222339F0233001F1A8F42130B3
:1003E00019F1223029F1F0E0EE0FFF1FEC5BFE4F18
:1003F000A591B4918FB7F894EC91611126C0309516
:100400003E233C938FBF08952730A9F02830C9F0D0
:10041000243049F7809180008F7D03C08091800057
:100420008F7780938000DFCF84B58F7784BDDBCF5B
:1004300084B58F7DFBCF8091B0008F778093B00023
:10044000D2CF8091B0008F7DF9CF3E2BDACF3FB76E
:10045000F8948091E4029091E502A091E602B091B7
:10046000E70226B5A89B05C02F3F19F00196A11DF4
:10047000B11D3FBFBA2FA92F982F8827BC01CD01EE
:10048000620F711D811D911D42E0660F771F881F4D
:10049000991F4A95D1F708952FB7F8946091E0021B
:1004A0007091E1028091E2029091E3022FBF0895E2
:1004B000AF92BF92CF92DF92EF92FF920F931F9372
:1004C000CF93DF936C017B018B01040F151FEB01B0
:1004D0005E01AE18BF08C017D10759F06991D60167
:1004E000ED91FC910190F081E02DC6010995892BD9
:1004F00079F7C501DF91CF911F910F91FF90EF9098
:10050000DF90CF90BF90AF90089584E88093BC00B7
:1005100080E491E02091BC0027FF03C08091BB00E4
:1005200008950197B9F78091AC0280618093AC0285
:1005300080E0089594EA9093BC0020E431E090912B
:10054000BC0097FF0CC08093BB0084E88093BC0084
:1005500080E491E02091BC0027FF0AC0089521505B
:10056000310969F78091AC0281608093AC020895F3
:10057000019781F78091AC028260F7CF1F93CF93F0
:10058000DF93EC01162F6F8382E7888785E090E088
:100590009D838C8383E70E949A020E94850294E9DE
:1005A0009093BC0090E08095909502C095958795BA
:1005B0001A95E2F780FD0CC080E08E830E944C0209
:1005C000688379838A839B83DF91CF911F910895FC
:1005D00083E0F3CFFC01868180FD04C083FB882784
:1005E00080F9089580E00895FC019681997081E07A
:1005F000993009F080E00895CF92DF92EF92FF9258
:100600001F93CF93DF93EC01FF808885882379F1D6
:100610008F5F0E949A020E94850294E99093BC0029
:100620001E81912F977F9E831695117090E0809583
:10063000909502C095958795FA94E2F78170181706
:10064000C1F00E944C02688379838A839B838E81E8
:1006500092E089278E838E8183FB882780F9DF9142
:10066000CF911F91FF90EF90DF90CF9008958FEF83
:10067000D7CF0E944C02C880D980EA80FB80AB01B2
:10068000BC014C195D096E097F098C819D81B0E028
:10069000A0E0481759076A077B07E8F28E8181704E
:1006A0001817C9F20E944C02688379838A839B835E
:1006B0008E8191E089278860CDCF20918902260F15
:1006C0003327331F21323105ECF42091E403FC0180
:1006D00090E080E0243069F082E00895A0918902E2
:1006E0002191AC0147595D4FA40FB52FB11D2C933B
:1006F0000196861798F380918902680F60938902AA
:1007000080E0089581E008951092E40381E08093F1
:10071000E3031092BE0361E082E10E94DB0161E02D
:1007200083E10E94DB01E9EBF0E080818E7F808332
:1007300080818D7F808388E48093B80085E48093F6
:10074000BC0008951092BD031092BC031092EB03FD
:1007500010920D040E94840385E291E09093BB0304
:100760008093BA0386E291E09093B9038093B80333
:100770000895CF93DF9391E0909368028823B9F0B6
:10078000C091B800D091BA008091BC008A7B809360
:10079000BC0060E082E10E94DB0160E083E10E9436
:1007A000DB010E948403D093BA00C093B800DF91AC
:1007B000CF9108958F929F92AF92BF92CF92DF9286
:1007C000EF92FF920F931F93CF93DF93D0910D047D
:1007D000D13208F0D7C0182FC0910C040E94270214
:1007E0006B017C018091E40381116BC082E08093F6
:1007F000E4031093E3038FEF8093E2031092E1038D
:10080000D093E003ACEEB3E0E0ECF3E080E0D8138B
:1008100091C01092BF038091BF03CC0FC82BC0932F
:10082000BF038091BE03813009F088C01092BE03DF
:100830000E9427026B017C018091BF038093BB0063
:100840008091E6039091E703A091E803B091E9035A
:10085000892B8A2B8B2BA1F00E9427020091E603A3
:100860001091E7032091E8033091E9036C197D09A9
:100870008E099F09061717072807390708F442C091
:100880008091BC0083FDD8CF85EC8093BC000E9492
:1008900027026B017C018091E403823009F450C08F
:1008A0008091E2038F3F09F46FC08091E2038032B0
:1008B00009F46CC08091E203803309F469C084E0DC
:1008C00026C08091E6039091E703A091E803B091E0
:1008D000E903892B8A2B8B2B09F484CF0E942702F2
:1008E0008090E6039090E703A090E803B090E903BE
:1008F0006C197D098E099F0986169706A806B90608
:1009000008F070CF8091E5030E94B90385E0109252
:10091000EB0310920D041092EA03DF91CF911F9127
:100920000F91FF90EF90DF90CF90BF90AF909F908E
:100930008F9008959D9191938F5F69CF85EEA5CF9C
:100940008091E6039091E703A091E803B091E90359
:10095000892B8A2B8B2B09F49ECF0E9427020091B2
:10096000E6031091E7032091E8033091E9036C1945
:100970007D098E099F09061717072807390708F010
:100980008ACFC0CF81E0C3CF80E0C1CF82E0BFCFAC
:1009900083E0BDCFCF92DF92EF92FF920F931F9330
:1009A000CF93DF93D82FC62F613208F098C00E94F2
:1009B00027026B017C018091E40381116BC081E00F
:1009C0008093E4038093E3039FEF9093E2031092FC
:1009D000E1039C0F9093E0038093BF038091BF03DA
:1009E000DD0FD82BD093BF038091BE03813009F077
:1009F00078C01092BE030E9427026B017C01809197
:100A0000BF038093BB008091E6039091E703A09120
:100A1000E803B091E903892B8A2B8B2BA1F00E946C
:100A200027020091E6031091E7032091E80330913B
:100A3000E9036C197D098E099F0906171707280716
:100A4000390708F448C08091BC0083FDD8CF85ECFD
:100A50008093BC000E9427026B017C018091E4031B
:100A6000813009F440C08091E1038C1710F4C091EB
:100A7000E103E0ECF3E0A8E9B3E080E08C1355C0BB
:100A80008C2FDF91CF911F910F91FF90EF90DF900E
:100A9000CF9008958091E6039091E703A091E80339
:100AA000B091E903892B8A2B8B2B09F484CF0E9408
:100AB00027020091E6031091E7032091E8033091AB
:100AC000E9036C197D098E099F0906171707280786
:100AD000390708F070CF8091E5030E94B903C0E0A8
:100AE000CFCF85EEB5CF8091E6039091E703A0913B
:100AF000E803B091E903892B8A2B8B2B09F4AECF45
:100B00000E9427020091E6031091E7032091E80379
:100B10003091E9036C197D098E099F0906171707A3
:100B20002807390708F09ACFD6CF91919D938F5F10
:100B3000A5CF0895E091BD038091BC03E81730F480
:100B4000F0E0E856FC4F808190E008958FEF9FEF32
:100B500008959091BD038091BC032FEF3FEF98174C
:100B600048F4E92FF0E0E856FC4F208130E09F5F29
:100B70009093BD03C90108958091BC039091BD037A
:100B8000891B990B0895CF92DF92EF92FF920F93FA
:100B90001F93CF93DF937C01CB018A012091EA035D
:100BA000222389F0EB016B01C40ED51ECC15DD05A7
:100BB00069F06991D701ED91FC910190F081E02DF0
:100BC000C7010995F3CF642F0E945D03C801DF912F
:100BD000CF911F910F91FF90EF90DF90CF900895EC
:100BE000CF93DF931F92CDB7DEB769832091EA03DD
:100BF0002223F9F020910D04203258F021E030E05A
:100C0000FC013383228390E080E00F90DF91CF914D
:100C100008958091EB03E82FF0E0E451FC4F9981B7
:100C200090838F5F8093EB0380930D0481E090E0CD
:100C3000ECCF61E0CE0101960E945D03F7CF682FF3
:100C400083E794E00C94F00581E00C94DA03CF93F1
:100C5000DF93CFE7D4E08A8388810E941B018E81D5
:100C60009F81DC01ED91FC910190F081E02D6A8182
:100C700009958E819F810E94240690E09D838C833C
:100C8000DF91CF910895CF93DF93EC0118820E94FA
:100C9000A203888180620E941B0180E00E941F06DF
:100CA0008FEF0E941F0683E794E00E94240688814C
:100CB00080620E941B0181E00E941F068FEF0E944C
:100CC0001F0683E794E0DF91CF910C942406CF9325
:100CD000DF93D62FC72FFC01808180620E941B0109
:100CE00082E10E941F068D2F0E941F068C2F0E94FA
:100CF0001F0683E794E0DF91CF910C942406CF93F5
:100D0000DF93EC018B81882371F088810E941B01A5
:100D100089819A810E94240691E0811190E0892FB7
:100D2000DF91CF9108950E94A20381E08B83CE01D1
:100D30000E947F06982F8111E8CFF1CF9C01DC0142
:100D4000A058BF4FEC9191E09E0F9C93E20FF32FC0
:100D5000F11D608397FD1C920895FC0180818076CF
:100D6000803611F4818108958081829586708E5F2E
:100D70000895CF92DF92EF92FF920F931F93CF933C
:100D8000DF93EC0109E11EE2EE24E394F12C93E001
:100D9000D92ECC24C394CE010E94AD0680930803C3
:100DA000E0910803E150109207038FEF9091070341
:100DB0009E1768F4A0910703AC0FBD2FB11D9C9145
:100DC0008927909107039F5F90930703EFCFEC0F64
:100DD000FD2FF11D8083F89480910603813059F432
:100DE00080910503811738F01092060380916F00FF
:100DF0008D7F80936F00789480910603813031F469
:100E000080910503843138F2C12CC5CF809106034F
:100E100081110EC0F89480916F008F7D80936F00D8
:100E2000B59B09C080916F00806280936F007894B9
:100E3000C110B1CF56C0E0910303F091040380814B
:100E400090910203970101C0220F9A95EAF7822B35
:100E5000808380918400909185008A5A9C4F909362
:100E6000010380930003809100039091010390930C
:100E70008900809388007894D093FF02C093FE028B
:100E8000109207031092FD0288818093FC02D09299
:100E9000060310920503B19A80916F0082608093DF
:100EA0006F00809106038330E1F38091FD02882377
:100EB000B1F0E091FA02F091FB02E757FF4F808119
:100EC000918101969183808383E090E0DF91CF91BF
:100ED0001F910F91FF90EF90DF90CF900895809138
:100EE00006031B3108F01150015009F052CF8091D8
:100EF00094039091950301969093950380939403A6
:100F000086E090E0E3CF8930B8F429E0829FF001D9
:100F10001124E65DFE4F85819681803127E292079C
:100F200058F4883E23E0920748F48436910540F453
:100F30000A9740F481E0089585E0089584E00895DB
:100F400083E0089582E00895CF938091DD0290912F
:100F5000DE02983110F48C3358F096E890930E042A
:100F60009FEA90930F04909310049FEF90931104C5
:100F7000CAE06C2F0E94B92460E3690F83E00E94ED
:100F800072018091DD026C2F0E94B92460E3680F2A
:100F900082E00E9472018091DE026C2F0E94B924CF
:100FA00060E3690F81E00E9472018091DE0260E2DD
:100FB0008A3028F06C2F0E94B92460E3680F80E02B
:100FC0000E9472018091D302882359F08091B60269
:100FD000882339F0809111048F7780931104CF9189
:100FE0000895809111048068F8CF089590E080E022
:100FF0000895EF92FF920F931F93CF93DF93DC013D
:1010000014962D913C912417350710F490E01DC0E3
:10101000EA017B018C01FC0180810E941B01D80147
:1010200011968D919C91DC01ED91FC910280F381F0
:10103000E02DAE01B7010995C817D90739F781E04E
:101040000E94DA0391E08111E1CF892FDF91CF91E6
:101050001F910F91FF90EF900895CF93DF93CDB73D
:10106000DEB761970FB6F894DEBF0FBECDBF198211
:10107000A0E6B4E0FE013196BF019C9111968C91DF
:101080001197129691838283329684E0A037B80735
:10109000A1F741E150E080917004909171040E94A9
:1010A000F90761960FB6F894DEBF0FBECDBFDF9192
:1010B000CF9108950E94CA041092BD038093BC038F
:1010C0000895FF920F931F93CF93DF938C01C62F48
:1010D000DCE0683010F0C850DDE0F801808180620B
:1010E0000E941B018D2F0E941F0683E794E00E943F
:1010F0002406F8018081806261E070E090E00E9447
:101100005A0883E794E00E94A905F82EF80180812F
:1011100080620E941B018D2F0E941F0681E090E0DB
:1011200001C0880FCA95EAF78F290E941F0683E73E
:1011300094E0DF91CF911F910F91FF900C942406C2
:101140000F931F93CF93DF938C01C62FD2E16830AA
:1011500010F0C850D3E1F801808180620E941B0129
:101160008D2F0E941F0683E794E00E942406F80159
:101170008081806261E070E090E00E945A0883E71D
:1011800094E00E94A905992702C095958795CA9574
:10119000E2F78170DF91CF911F910F910895FF9237
:1011A0000F931F93CF93DF931F92CDB7DEB78C01C0
:1011B0006983F42EF8014783608785E090E095838A
:1011C0008483642FCE0101960E94A008F801168244
:1011D0006F2DCE0101960E94A008882319F083E0AC
:1011E000F80186830E944C02F80160837183828338
:1011F00093830F90DF91CF911F910F91FF900895EE
:10120000EF92FF920F931F93CF93DF938C01C62F22
:10121000E42E84E1F82ED2E1683020F0C85095E148
:10122000F92ED3E1F801808180620E941B018F2D8D
:101230000E941F0683E794E00E942406F801808143
:10124000806261E070E090E00E945A0883E794E0D9
:101250000E94A90521E030E001C0220FCA95EAF7FB
:10126000F1E0C82FC22BEF1619F02095C22FC8232A
:10127000F801808180620E941B018D2F0E941F0651
:101280008C2F0E941F0683E794E0DF91CF911F917E
:101290000F91FF90EF900C942406FC01962F828D05
:1012A0008F3F31F0603140F4CF014B960C94000930
:1012B000642F892F0C94DB0108950F931F93CF9314
:1012C000DF93C62F8C01055E1F4FD1E062FB4427E0
:1012D00040F94D2768E0C8010E940009C1FB44277E
:1012E00040F94D2767E0C8010E9400094C2F409546
:1012F000417066E0C801DF91CF911F910F910C946E
:101300000009FF920F931F93CF93DF938C01C62F99
:10131000F42ED0E0683010F0C850D1E0F8018081A0
:1013200080620E941B018D2F0E941F0683E794E0BC
:101330000E942406F8018081806261E070E090E004
:101340000E945A0883E794E00E94A90521E030E05A
:1013500001C0220FCA95EAF7C82FC22BFF2019F04F
:101360002095C22FC823F801808180620E941B0152
:101370008D2F0E941F068C2F0E941F0683E794E08A
:10138000DF91CF911F910F91FF900C942406603153
:1013900010F40C9481090895CF93DF93EC0140E0A1
:1013A0006E810E944D0941E06E81CE010E944D097F
:1013B00040E06E81CE010E944D098BE891E00197DB
:1013C000F1F7DF91CF910895AF92BF92CF92DF9264
:1013D000EF92FF920F931F93CF93DF93EC018A8DCF
:1013E0008E01095F1F4FC62ED12C8F3F09F482C09A
:1013F0007E018BE1E80EF11C8B8D80620E941B0147
:1014000082E10E941F0683E794E00E9424068B8DF0
:10141000806262E070E090E00E945A0883E794E006
:101420000E94A905B82E83E794E00E94A90560E018
:10143000782FCB018B29F80130E020E001E010E0AB
:101440004191B801042E02C0660F771F0A94E2F79B
:101450006095709586239723B601022E02C075957C
:1014600067950A94E2F76170772702C0660F771FCD
:101470004A95E2F7862B972B2F5F3F4F243031059B
:10148000F9F62E81680102C0CC0CDD1C2A95E2F72A
:10149000C094D094C822D922B601C7010E94670621
:1014A0008E81B80102C0660F771F8A95E2F7C62ABF
:1014B000D72AB601C7010E9467068E81B80102C013
:1014C000660F771F8A95E2F7609570956C217D21F4
:1014D000C7010E9467068BE891E00197F1F7DF9161
:1014E000CF911F910F91FF90EF90DF90CF90BF9021
:1014F000AF900895F12CE12C5E01EBE1AE0EB11C32
:10150000F80181918F019A8D9F3F39F141E0682F59
:10151000C5010E94C709A6010E2C02C0559547952A
:101520000A94E2F74170F80131976081CE010E9480
:101530004D09FFEFEF1AFF0A84E0E816F10401F706
:10154000CE01DF91CF911F910F91FF90EF90DF902F
:10155000CF90BF90AF900C94CC090E94BC01DBCF20
:10156000AF92BF92CF92DF92EF92FF920F931F93B1
:10157000CF93DF93EC01F62E6C810E944D096D81B3
:101580006F3F21F040E0CE010E944D090F2D10E089
:101590008C8984FF3AC06E0187E0C80ED11CF12C03
:1015A000E12C5E01EBE1AE0EB11CF60181916F0101
:1015B0009A8D9F3F39F141E0682FC5010E94C7090C
:1015C000A8010E2C02C0559547950A94E2F7417088
:1015D000F60131976081CE010E944D09FFEFEF1AAD
:1015E000FF0A88E0E816F10401F7CE01DF91CF9100
:1015F0001F910F91FF90EF90DF90CF90BF90AF9031
:101600000C94CC090E94BC01DBCFB80184E0759535
:1016100067958A95E1F7CE010E94E4096F2DCE010E
:10162000DF91CF911F910F91FF90EF90DF90CF90BE
:10163000BF90AF900C94E40941E00E94B00A81E0B1
:1016400090E0089541E0682F86E194E00E94B00A9E
:1016500081E090E008950F931F93CF93DF938C0167
:10166000D0E0C0E0F801EC0FFD1F6491662339F073
:1016700041E086E194E00E94B00A2196F3CFCE01CA
:10168000DF91CF911F910F91089540E00C94B00A23
:10169000CF93DF93CDB7DEB728970FB6F894DEBFB0
:1016A0000FBECDBF98E0E8E1F1E0DE0111960190B8
:1016B0000D929A95E1F790912E04961708F46FEF2A
:1016C000262F30E0220F331F41E050E04C0F5D1F0A
:1016D000240F351FF9016081680F606886E194E08E
:1016E00028960FB6F894DEBF0FBECDBFDF91CF9125
:1016F0000C94450B61E00E94450B8BE39FE1019741
:10170000F1F7089586E194E00E947A0B60E080E0B2
:101710000E94480B84E890E00E942B0B82ED80939E
:10172000C002089586E194E00E947A0B60E080E0B8
:101730000E94480B80E890E00E942B0B88EC80937D
:10174000C002089586E194E00E947A0B60E080E098
:101750000E94480B80E790E00E942B0B82E0809370
:10176000C002089586E194E00E947A0B60E080E078
:101770000E94480B88E690E00E942B0B81E080934A
:10178000C00208953F924F925F926F927F928F9224
:101790009F92AF92BF92CF92DF92EF92FF920F9300
:1017A0001F93CF93DF93C82F362E142FD22F81E0B3
:1017B0008093D4028091B2029091B30201969093EB
:1017C000B3028093B202C093D2020093D70181E0AA
:1017D000C11101C080E08093D3020E944C0260934B
:1017E000CE027093CF028093D0029093D102011168
:1017F00004C08091100183FF9BC0CC2309F498C0E2
:101800008091D502D81709F48DC080911001909174
:10181000110180729927D0FD04C0892B21F082E04C
:1018200003C0892BE1F381E08093CB028091CD024C
:10183000882329F08091CB028C6F0E94270680912B
:10184000B102882309F46EC06D2F70E084E6189F02
:10185000600D711D1124072E000C880B990B0E943E
:101860009C232B013C0120E030E040E05FE30E943C
:1018700088220E946B236B017C01812C912C30E823
:10188000A32E3FE3B32E00E080E1C81687E2D8061E
:10189000E104F104E0F0015020E030E040E251E4E6
:1018A000C501B4010E94F9224B015C01AC019B010E
:1018B000C301B2010E944C2420E030E040E05FE32D
:1018C0000E9488220E946B236B017C01DDCF20E007
:1018D00030E040E85FE3C501B4010E94F422712CBE
:1018E000C4E02AE0822E912CA12CB12C87FF32C0BB
:1018F00080E490E09093610480936004909363048B
:1019000080936204909367048093660490936904C3
:101910008093680482E090E090936504809364046F
:101920000E942D081093D602D093D5023092D60192
:10193000DF91CF911F910F91FF90EF90DF90CF90AB
:10194000BF90AF909F908F907F906F905F904F90DF
:101950003F900895C114D104E104F10411F4071576
:1019600088F1002319F0442443940711412C5C2E84
:10197000C1506C2E84E0851558F0C701B601A50151
:1019800094010E94C524605D442D852D0E94A40110
:10199000C23069F4CEEFC50D84E0861540F0E62D27
:1019A000F0E0EE0FFF1FE05AFB4F11821082C701DB
:1019B000B601A50194010E94C52469017A017394BE
:1019C000C9CFC150C7FDA6CFC530DCF7EC2FF0E082
:1019D000EE0FFF1FE05AFB4F11821082F2CF0F93E0
:1019E000082F2091F10223548091F30298E9980F77
:1019F000883618F468E10E94B924492F6091F402F6
:101A00008091EE020E94C20B0F9108950F93AC01DA
:101A10008091020190910301892B21F080911001A6
:101A200082FF32C08091D202882371F12091C702D7
:101A30003091C8022E5833404217530728F550936F
:101A4000C8024093C7029091100193FF1DC02091DE
:101A5000D50291E0920F9093D5029C3358F090916B
:101A6000D6022B532093D50221E0290F283170F4A0
:101A70002093D6020091D7012091D5024091D60241
:101A80006091D6010E94C20B0F91089597519093D7
:101A9000D602F0CF8F929F92AF92BF920F931F9377
:101AA000CF93DF93CDB7DEB7A1970FB6F894DEBF23
:101AB0000FBECDBF19A2423008F44AE08E010F5D7F
:101AC0001F4F842E912CB12CA12CA50194010E94B2
:101AD000C524E62FB901CA01EA3044F5E05DD8011A
:101AE000EE938D01232B242B252B79F790E080E0BA
:101AF000109769F0FD0101900020E9F73197AF01DF
:101B00004A1B5B0BBD0186E194E00E945802A1963E
:101B10000FB6F894DEBF0FBECDBFDF91CF911F91FE
:101B20000F91BF90AF909F908F900895E95CD7CFB1
:101B3000CF93DF93EC016530D8F0C03187E2D8074E
:101B400050F480E30E94220BC83E83E0D80718F4CB
:101B500080E30E94220BC436D10518F480E30E9472
:101B6000220BCA30D10550F480E30E94220B06C03C
:101B7000643051F3633079F3623099F3BE0190E041
:101B800080E04AE0DF91CF910C944A0DEF92FF92F2
:101B90000F931F93CF93DF93CDB7DEB762970FB646
:101BA000F894DEBF0FBECDBF082FF92E60912B0435
:101BB0006D7F60932B04686086E194E00E94450B82
:101BC00086E194E00E947A0B60E080E00E94480B7E
:101BD00088E091E00E942B0B60E083E00E94480BBC
:101BE000E090C0021DEE1E0D1A3018F480E20E9433
:101BF000220B612F70E090E080E04AE00E944A0DE5
:101C00001CEE1E0D60E086E00E94480B8CEF90E019
:101C10009A83898383EF90E09C838B838BEE90E0A3
:101C20009E838D8383EE90E098878F838BED90E089
:101C30009A87898783ED90E09C878B878BEC90E077
:101C40009E878D8785EC90E0988B8F878CEB90E05A
:101C50009A8B898B88EB90E0193040F4E12FF0E00B
:101C6000EE0FFF1FEC0FFD1F818192810E942B0B55
:101C700061E080E00E94480B8091BF02882319F048
:101C80008EE30E94220B1930A0F589E0189FF00125
:101C90001124E65DFE4F8781823059F507FD03C0B0
:101CA00080E30E94220B0034E0F480E30E94220BC8
:101CB0000032B8F480E30E94220B003190F480E3FC
:101CC0000E94220B083068F480E30E94220B04304B
:101CD00040F480E30E94220B023018F480E30E945B
:101CE000220B602F70E090E080E042E00E944A0DFD
:101CF00008C0812F0E948307682F802F9F2D0E948C
:101D0000980D8091BF02811144C0193048F489E0D8
:101D1000189FF0011124E65DFE4F80858823D9F1DC
:101D200061E08EE00E94480B85E091E062960FB67C
:101D3000F894DEBF0FBECDBFDF91CF911F910F9101
:101D4000FF90EF900C942B0B89E0189FF001112469
:101D5000E65DFE4F808581111EC061E08091BC026E
:101D60000E94480B60912B04862F826080932B0485
:101D70006A6086E194E062960FB6F894DEBF0FBE0B
:101D8000CDBFDF91CF911F910F91FF90EF900C94F9
:101D9000450B1930C8F262960FB6F894DEBF0FBE3D
:101DA000CDBFDF91CF911F910F91FF90EF900895DC
:101DB00086E194E00E947A0B60E080E00E94480B8C
:101DC00081EA90E00E942B0B61E080E00E94480BCA
:101DD00088E990E00E942B0B60910C0170910D013D
:101DE00090E080E04AE00C944A0D0F931F93CF934C
:101DF000DF930E94A20380E20E941B0183E794E02C
:101E00000E94240681112AC18091C202811108C159
:101E10008FE594E00E944306809130048F3F09F4DF
:101E200057C00E94A20381E394E00E94430641E070
:101E300068E081E394E00E94810941E066E081E38B
:101E400094E00E94810941E067E081E394E00E9410
:101E5000810967E086E194E00E945D0960911B04BE
:101E6000662329F041E081E394E00E94C70941E044
:101E700060911A0481E394E00E94C70941E06091F7
:101E80001C0481E394E00E94C7090DE114E0C6E15F
:101E9000D4E0F80161918F0141E081E394E00E9478
:101EA000C709F4E001321F07A1F70BE114E040E09D
:101EB0006F8581E394E00E94C7096F85603120F44B
:101EC00081E394E00E94610821960C171D0779F7C1
:101ED00080912A04886080932A0482E080932E04F3
:101EE00010922F048BE39DE00197F1F740E06091A1
:101EF0001A0486E194E00E944D0940E060911C04C0
:101F000086E194E00E944D0960911B046F3F29F027
:101F100040E086E194E00E944D0960912A0464FD4E
:101F200081C063E086E194E00E94E409CBE4D6E45A
:101F3000CE010197F1F763E086E194E00E94E409A5
:101F40002197F1F763E086E194E00E94E40983E5DC
:101F500092E00197F1F762E086E194E00E94E409E3
:101F600060912A04606286E194E00E94450B84E05F
:101F700080932B046CE086E194E00E94450B86E19F
:101F800094E00E947A0B82E080932C0466E086E164
:101F900094E00E94450B40E065E08FE594E00E94EC
:101FA000810965E08FE594E00E94610844E050E01B
:101FB00060915F0482E394E00E94CF0843E050E028
:101FC00060915F0484E494E00E94CF0842E050E016
:101FD00060915F048DE494E00E94CF0841E050E0FE
:101FE00060915F048BE394E00E94CF0850E040E0F2
:101FF00060915F0486E594E00E94CF0880910E0115
:1020000090910F010C9711F40E94D80E1092C1020A
:102010001092C0021092BE021092BD021092BF0236
:1020200081E01DC0606286E194E00E94450B8BE474
:1020300096E40197F1F760912A04606286E194E0EA
:102040000E94450B83E592E00197F1F760912A0425
:10205000606286E194E00E94450B82CF80E080932D
:10206000C202DF91CF911F910F9108951F93CF93DB
:10207000DF93C091BD02D091BE022196D093BE02E3
:10208000C093BD0261E080E00E94480BC038D105DA
:1020900038F08EE890E0DF91CF911F910C942B0BDC
:1020A000C091BD02D091BE028C2F0E941B0183E71C
:1020B00094E00E942406182F882311F08430D1F474
:1020C00085E990E00E942B0BDD27C031D10518F483
:1020D00080E30E94220BBE0190E080E040E10E947C
:1020E0004A0D80E2143009F48FE3DF91CF911F9104
:1020F0000C94220B2196D093BE02C093BD02C6CF92
:10210000FC0101900020E9F73197AF01481B590B02
:10211000BC0186E194E00C945802CF93DF9361E018
:1021200080E00E94480B8091D402811106C084EBAC
:1021300090E0DF91CF910C942B0BD091D202C09103
:10214000D70164E08091B2029091B3020E94980D91
:1021500082EB90E00E942B0B809102019091030191
:10216000892BB9F58FEA90E00E942B0B62E08D2F4E
:1021700090E00E94980D8DE20E94220B80E3C11135
:1021800081E30E94220B8DE20E94220B8091D502F6
:1021900080FD24C08DEC91E00E94801080910201AE
:1021A00090910301892B19F18AE20E94220B809100
:1021B000960480FD16C081ED91E00E948010809110
:1021C0008D0480FD11C081ED91E0DF91CF910C94E1
:1021D00080108AEA90E00E942B0BCDCF8BEC91E02F
:1021E000DBCF8FEC91E0E9CF8FEC91E0EECFDF9188
:1021F000CF91089585ED8093BC008091E603909186
:10220000E703A091E803B091E9030796A11DB11D72
:1022100023E0B695A795979587952A95D1F72091B4
:10222000BC0024FD03C01092E40308954091E6032E
:102230005091E7036091E8037091E903452B462B29
:10224000472B69F30097A105B10541F02AE22A95D1
:10225000F1F700C00197A109B109E1CF8091E50331
:102260000C94B9032F923F924F925F926F927F929C
:102270008F929F92AF92BF92CF92DF92EF92FF9296
:102280000F931F93CF93DF9300D000D0CDB7DEB76D
:102290009C838B837C0141E8E40EF11C6C0150E8C7
:1022A000C50ED11C8C010E571F4F8D579F4F2C010F
:1022B0008B819C818C579F4F4C0122242A94AB80A8
:1022C000BC8097E8A90EB11CEB81FC81EB57FF4F56
:1022D000FA83E983F7018081F6019081891709F477
:1022E000BAC0EB81FC81E80FF11D308037FE6DC074
:1022F000F8019081891739F0F501208131812F5F34
:102300003F4F31832083F8018083F2012082832DA7
:102310008076F401803609F441C0832D8295867061
:102320008E5F8083F8012081F4018081820F9927DC
:10233000991F813891059CF180E8682E621AF89403
:10234000F6014081F8018081841708F044C0F42F21
:10235000F81B8F2FF60180837894F801608146176F
:10236000E8F5712C50E06B817C81CB01860D971DC7
:102370000E941226F80160814B815C81460F511D3D
:10238000BA01A3018B819C810E941226F7018081F2
:10239000F8019081891BF7018083F8011082F70111
:1023A00090819F5F9083F8018081392F381B97FFC0
:1023B00002C0F7011082F2012081F401908193178D
:1023C000A9F03226F201308285CFF401808181119B
:1023D000E6CF3082A7CF862D840FBCCF461B50E0BE
:1023E0008B819C81860F911DBC01CCCF32122AC0FB
:1023F0004B815C81480F511DCA01E981FA814081FE
:1024000051814F5F5F4F51834083F7013081F80165
:1024100030830097B1F20F900F900F900F90DF91E3
:10242000CF911F910F91FF90EF90DF90CF90BF90D1
:10243000AF909F908F907F906F905F904F903F9064
:102440002F900895F5018081918101969183808379
:1024500090E080E0DACF90E080E0DDCF6F927F9275
:102460008F929F92AF92BF92CF92DF92EF92FF92A4
:102470000F931F93CF93DF93E091C902F091CA02AB
:10248000D581D3709780868073806280A82EE8946F
:10249000A7F887FD9AC0D061B62EE894B7F867FD1B
:1024A000D860C42EE894C7F811E147FF10E1D22E9E
:1024B000E894D7F827FD1260F02EE894F7F807FDAE
:1024C00014600E2D0F77E7FC1860C92DC82588E031
:1024D000C827C725C625C027CF25CD25CC25CB2588
:1024E000CA25CD27C12765EE88ED91E00E949E06A2
:1024F00060E188ED91E00E949E06662D88ED91E0F6
:102500000E949E06672D88ED91E00E949E0662E083
:1025100088ED91E00E949E066D2F88ED91E00E946B
:102520009E06682D88ED91E00E949E06692D88ED3B
:1025300091E00E949E066A2D88ED91E00E949E0621
:102540006B2D88ED91E00E949E06612F88ED91E051
:102550000E949E066C2D88ED91E00E949E066D2DD6
:1025600088ED91E00E949E066F2D88ED91E00E941B
:102570009E06602F88ED91E00E949E066C2F6F777B
:1025800088ED91E00E949E066FEF88ED91E00E9439
:102590009E0688ED91E00E9432119093CA028093CA
:1025A000C902009711F00E94B90681E0DF91CF9136
:1025B0001F910F91FF90EF90DF90CF90BF90AF9061
:1025C0009F908F907F906F900895D46165CF0F9307
:1025D0001F93CF93DF93E82FF0E099E0899FD0011C
:1025E0001124A65DBE4F15962D913C9126173707F5
:1025F000C0F08B01C82FEE0FFF1FE050FF4F71831B
:102600006083CF5FCC0FD0E0612FCE010E94792292
:10261000602FCE010196DF91CF911F910F910C9405
:102620007922DF91CF911F910F910895893010F495
:102630000C94E7120895CF93DF936DE490E080E06F
:102640000E9479226AE581E090E00E947922CAE244
:10265000D1E069817A8188810E941613299681E0F0
:10266000CB37D807B1F7DF91CF9108951F920F9222
:102670000FB60F9211242F933F938F939F93AF9395
:10268000BF938091E0029091E102A091E202B091AB
:10269000E3023091DF0223E0230F2D3758F5019636
:1026A000A11DB11D2093DF028093E0029093E1020F
:1026B000A093E202B093E3028091E4029091E502DC
:1026C000A091E602B091E7020196A11DB11D809391
:1026D000E4029093E502A093E602B093E702BF9173
:1026E000AF919F918F913F912F910F900FBE0F90BF
:1026F0001F90189526E8230F0296A11DB11DD2CF79
:102700001F920F920FB60F9211242F933F934F9366
:102710005F938F939F93AF93BF93EF93FF938091BA
:102720001304882309F448C088B18F6088B985B143
:10273000817C85B9E0911204F0E0E25FFB4F80817B
:1027400025B190E095958795959587958E739927F6
:10275000822B85B98BB1877C8BB9E0911204F0E0B4
:10276000E25FFB4F80812BB138E0839FC0011124D1
:1027700088739927822B8BB940911204809114049D
:1027800028B1480F5527551F81E090E002C0880FFF
:10279000991F4A95E2F780959095822388B9809198
:1027A00012048F5F8093120490911204809113049D
:1027B000981710F0109212048091AD029091AE0221
:1027C000A091AF02B091B0020196A11DB11D8093FE
:1027D000AD029093AE02A093AF02B093B002FF910E
:1027E000EF91BF91AF919F918F915F914F913F91E9
:1027F0002F910F900FBE0F901F9018951F920F9260
:102800000FB60F9211242F933F934F935F936F93C3
:102810007F938F939F93AF93BF93EF93FF93809199
:10282000B900887F803609F44AC0F0F5883209F48F
:10283000A7C018F5803109F49BC0B8F4882309F4C7
:10284000F9C0883009F494C0FF91EF91BF91AF9126
:102850009F918F917F916F915F914F913F912F91B8
:102860000F900FBE0F901F901895883109F488C003
:10287000803251F78093E20314C0803409F49DC084
:1028800040F48033B9F38833F9F68093E20385ECA2
:10289000B0C0803509F485C0883509F496C0883405
:1028A00099F60E94FA10D0CF883909F48CC038F517
:1028B000883729F050F4883611F0803729F683E004
:1028C0008093E4031092AB0257C0883809F47BC0B0
:1028D000803919F0803809F0B7CF8091AB0280328F
:1028E00008F071C0E091AB0281E08E0F8093AB02E3
:1028F0008091BB00F0E0E557FD4F80833DC0803BF9
:1029000039F0E0F4803A09F479C0883A09F09CCFB4
:1029100084E08093E40310928A0210928902E0918D
:10292000BA03F091BB0309958091890281110FC010
:1029300081E0809389021092690209C0803C09F409
:10294000A6CF883C09F4A3CF883B09F07DCFE09166
:102950008A0281E08E0F80938A02F0E0E759FD4FF2
:1029600080818093BB0090918A028091890229C066
:102970008091BF038093BB0085EC8093BC0064CF43
:102980009091E1038091E003981758F5E091E103FD
:1029900081E08E0F8093E103F0E0E054FC4F8081F2
:1029A000E9CFE091E10381E08E0F8093E103809114
:1029B000BB00F0E0E054FC4F80839091E1038091F4
:1029C000E0039817C8F285E8D8CFE091E10381E0F1
:1029D0008E0F8093E1038091BB00F0E0E054FC4F48
:1029E00080838091E30381115CCF81E08093BE03FB
:1029F00084EA8093BC001092E40326CF85EC809398
:102A0000BC001092E4038091AB02803230F4E0917C
:102A1000AB02F0E0E557FD4F10826091AB0270E031
:102A2000E091B803F091B9038BE892E00995109218
:102A3000AB020ACF1092E20334CF1F920F920FB66F
:102A40000F921124DF92EF92FF920F931F932F9317
:102A50003F934F935F936F937F938F939F93AF9326
:102A6000BF93CF93DF93EF93FF93B19A80910003CD
:102A70009091010380549C4F909301038093000335
:102A800080910003909101039093890080938800C6
:102A900080916702882371F010926702189B26C00C
:102AA00081E080930603B59A80916F0080628093E5
:102AB0006F001CC0809105038F5F80930503809198
:102AC0000603843009F043C080910503893030F556
:102AD0008091FC0290E0959587958093FC02189B6D
:102AE00005C08091FC0280688093FC02FF91EF9109
:102AF000DF91CF91BF91AF919F918F917F916F9116
:102B00005F914F913F912F911F910F91FF90EF9007
:102B1000DF900F900FBE0F901F901895B59A80917F
:102B20006F00806280936F008091FA029091FB02A7
:102B3000189929C0FC01E957FF4F808191810196C6
:102B4000918380831092050381E080930603809136
:102B500006038330E9F5E0910303F09104038081DB
:102B60002091020333B190E0022E02C09595879523
:102B70000A94E2F7832780FD11C01092050382E0DA
:102B80008093060325C06091FC020E949E0680E0AF
:102B900090E0892BB9F20E940000D4CF8091050308
:102BA000893008F043C03091FC0281E090E001C020
:102BB000880F2A95EAF7908130FF36C080958923E7
:102BC00080838091FC0290E0959587958093FC022C
:102BD00080910603823099F48091050381118EC0A3
:102BE000E0910303F091040380819091020321E0BE
:102BF00030E001C0220F9A95EAF7822B8083809102
:102C00000603813009F072CF80910503882309F40F
:102C10004ACF80910503883308F468CF10920603E9
:102C200080916F008D7F43CF892BCACF80910503A0
:102C3000893059F4308181E090E001C0880F2A95F5
:102C4000EAF7809583238083C3CF809107038F5F4A
:102C50008093070390910803891750F5109205039C
:102C60008091FE029091FF02A0910703A80FB92F57
:102C7000B11D8C918093FC02808141E050E001C045
:102C8000440F2A95EAF7842B8083809184009091E9
:102C900085008A5A9C4F9093010380930003809192
:102CA000000390910103909389008093880090CF56
:102CB00081E08093FD020091FE021091FF02E090FE
:102CC000FA02F090FB02C8010E94AD06D82ED0E0B7
:102CD000C0E0CD1548F4F801EC0FFD1F6081C7017D
:102CE0000E949E062196F5CF80E090E0892B11F09E
:102CF0000E9400001092050381E042CF80910503FD
:102D00008F3008F47CCFE0910303F091040320811D
:102D10003091020381E090E001C0880F3A95EAF714
:102D20008095822380831092050381E080930603BF
:102D3000E091FA02F091FB02E357FF4F808191810D
:102D40000196918380835BCF1F920F920FB60F92F3
:102D500011248F939F93EF93FF93B59AEFE6F0E0E2
:102D600080818F7D80838091860090918700805242
:102D70009E4F9093010380930003809100039091F4
:102D800001039093890080938800B19A80818260CA
:102D9000808384E0809306031092050381E0809392
:102DA0006702FF91EF919F918F910F900FBE0F904F
:102DB0001F901895893028F529E0829FF001112491
:102DC000E65DFE4F85819681803127E29207C8F447
:102DD000883E23E09207B8F484369105B0F40A9750
:102DE000B0F481E09091BC02891B990B853091056C
:102DF00080F4880F991FFC01E05EFE4F8081918175
:102E0000089585E0EFCF84E0EDCF83E0EBCF82E063
:102E1000E9CF90E080E008950F931F93CF93DF9365
:102E200003E714E0F8011382128288EE93E0A0E039
:102E3000B0E084839583A683B78381EB91E091838F
:102E40008083CFEBD4E086E0888380E8898388E0C4
:102E50008A831B821C821D821E8286E00E94BC0126
:102E60000E944C026B837C838D839E83EDEBF4E0A8
:102E70001082118210921404109213041092120402
:102E8000EEE0F4E0CFEFC083C183C283C38360E090
:102E900080E00E942701E4EBF4E0108211821282AC
:102EA00013828AE090E095838483168217821086CD
:102EB000EBEAF4E0108211821282138295838483FC
:102EC000168217821086E2EAF4E0108211821282E2
:102ED000138295838483168217821086E9E9F4E0D1
:102EE0001082118212821382958384831682178244
:102EF0001086E0E9F4E01082118212821382958339
:102F00008483168217821086E7E8F4E0108211822B
:102F10001282138295838483168217821086EFE7CC
:102F2000F4E02DE32083178306831182C283C383D9
:102F300015821482E0E6F4E0118A108A128AE6E132
:102F4000F4E013821282128E148A2FE024832EE082
:102F500025832DE026832CE027832BE020872AE0A1
:102F6000218729E02287178621E0208B22E0218B10
:102F700023E0228B24E0238B23EC31E03183208378
:102F8000148E158E168E178E91A380A312A213A2F3
:102F900015A216A217A210A692A781A713A614A67F
:102FA00016A617A610AA11AA93AB82AB14AA15AA4B
:102FB00017AA10AE11AE12AE94AF83AF15AE16AE17
:102FC000109256041092570410925804109259040B
:102FD00090935B0480935A0410925C0410925D04F9
:102FE0008CE180931504DF91CF911F910F9108958B
:102FF000CF93DF93CDB7DEB762970FB6F894DEBFFD
:103000000FBECDBF789484B5826084BD84B58160E5
:1030100084BD85B5826085BD85B5816085BD8091A3
:103020006E00816080936E0010928100809181001B
:103030008260809381008091810081608093810013
:10304000809180008160809380008091B1008460D5
:103050008093B1008091B00081608093B000809136
:103060007A00846080937A0080917A0082608093F5
:103070007A0080917A00816080937A0080917A0052
:10308000806880937A001092C10080E0E82E81E091
:10309000F82E92E0C92ED12CC6010E947122182F61
:1030A000C60101960E947122212F30E0322F222783
:1030B000820F932F911DD7018D939D937D01B2E0D7
:1030C000CB0ED11CE4E1CE16D10431F780910C0176
:1030D00090910D01079728F467E070E086E00E9468
:1030E000E71280910E0190910F010C9711F00E9450
:1030F0001B130E94F50EE9E0F3E08FE8DF011D925B
:103100008A95E9F787E00E94BC01E3E7F1E02491AA
:10311000EFE5F1E0E491F0E0EE0FFF1FEC5BFE4F16
:103120004591549180E091E031E0291741F08F5FA3
:10313000932F082E01C0990F0A94EAF7F6CF509307
:103140000403409303038093020389E093E0909388
:10315000FB028093FA022098E0910303F0910403AC
:1031600020813091020381E090E001C0880F3A9500
:10317000EAF78095822380831092800081E080931B
:10318000810010920603B59A80916F00806280934F
:103190006F0080918100887F816080938100009121
:1031A0000201109103010115110509F47DC0809100
:1031B000100182FD79C08091100182FD89C00E94BA
:1031C000A20389E30E941B0183E794E00E94240686
:1031D000811124C067E070E084EB94E00E94BE029D
:1031E00066E070E08BEA94E00E94BE0265E070E069
:1031F00082EA94E00E94BE0264E070E089E994E013
:103200000E94BE0261E070E080E994E00E94BE028C
:1032100070E060E087E894E00E94BE021092DB025A
:103220001092DC021092D7021092D8021092D902AA
:103230001092DA0261E081E00E942701A8E02A2EC4
:10324000312CB0E64B2EBAEE5B2E612C712C88240B
:103250008A94FFE39F2E0E944C020091C2041091B9
:10326000C3042091C4043091C504601B710B820B10
:10327000930B653171058105910508F40DC10E941C
:103280004C026093C2047093C3048093C40490936F
:10329000C5041091C0048091C104113C08F4BBC066
:1032A00081958093C104BAC01092E9021092E8029D
:1032B00084E08093EA028BEB89838BE78A831B820D
:1032C000CE0101960E94B9060115110509F073CFD0
:1032D0001092D2021092B3021092B2021092CE0259
:1032E0001092CF021092D0021092D1021092D3020B
:1032F000012B21F08091100182FF61CF0E94A20377
:103300008DE30E941B0183E794E00E942406811153
:1033100003C081E08093CD0280E70E941B0183E718
:1033200094E00E94240681114ACF81E08093B1028B
:103330008091700490917104009711F00E9489258A
:1033400086E090E00E94ED248C0180E7F801808304
:1033500083E794E092838183138280E290E09583F7
:10336000848310937104009370040E94A20381E08F
:10337000D80113968C93C8010E947F06882309F414
:103380001ECF81E2898B41E050E0BE016F5E7F4F2E
:1033900080917004909171040E94F9071092610469
:1033A00010926004109263041092620410926504FB
:1033B00010926404109267041092660410926904DB
:1033C0001092680410926B0410926A0410926D04BB
:1033D00010926C0410926F0410926E040E942D08DB
:1033E00081E8898341E050E0BE016F5F7F4F8091AB
:1033F0007004909171040E94F9078FEE898341E077
:1034000050E0BE016F5F7F4F809170049091710416
:103410000E94F907D4CE103208F442CF8091C10443
:10342000180F1093C0040091BF04802F0E94BC01AC
:10343000111105C060E0802F0E94DB012DC01F3FED
:1034400011F461E0F8CFE02FF0E0E05DFE4FE49191
:10345000E33009F40AC140F4E130D1F0E23009F47C
:10346000FFC017FDEECFE6CFE73009F40AC1E83020
:1034700009F40FC1E430A9F7809180008062809345
:103480008000812F90E090938B0080938A0004C08D
:1034900084B5806884BD17BD0E944C020091B802BB
:1034A0001091B9022091BA023091BB02601B710BDE
:1034B000820B930B6E3771058105910528F10E94EF
:1034C0004C026093B8027093B9028093BA02909351
:1034D000BB029091B70281E098279093B70299239D
:1034E00099F09091B60298279093B602992361F0D3
:1034F0009091B50298279093B502992329F0909165
:10350000B40289278093B4020E94F50E8091C20212
:103510008130E1F565E08FE594E00E94A008B0E21B
:103520008B9FC00111248095909561E085FD60E03E
:1035300086E194E00E945D0905E214E0F12CE12CA3
:10354000EFE1DE2ECE2CF80161918F0180E0603139
:1035500020F481E394E00E94A00890E002C0880F6C
:10356000991FCA94E2F780959095D822FFEFEF1A41
:10357000FF0A25E0E216F10429F78091C102D1107B
:1035800090C0882309F4DCC01092C10289E093E066
:103590000E943211FC019093CA028093C902892BC8
:1035A00009F405C5909110012091020130910301A9
:1035B000232B11F092FFDFC2828194FFD9C28B3797
:1035C00009F0D9C280818F3E29F4828586FD02C030
:1035D000806482878081877F873E09F0CCC28581A5
:1035E00040E8849F900111248481820F932F911DC4
:1035F000D401A81BB90BB093C802A093C70282855F
:1036000086FFE6C58091E8029091E9021816190636
:103610000CF0B1C28EE0ABEEB2E001900D928A9553
:10362000E1F781E00E94EF0C8091EA0282FF11C075
:103630008091F002B0E88B9F900111248091EF02FD
:10364000820F932F911DF401E81BF90BCF010E940B
:10365000060D22E030E03093E9022093E8028BC2AD
:1036600084B5806284BD18BD17CF809180008068CA
:1036700080938000812F90E0909389008093880050
:103680000BCF8091B00080688093B0001093B3009E
:1036900003CF8091B00080628093B0001093B4009B
:1036A000FBCE8D1509F44CC08091C002D092C102AE
:1036B000811105C0D2FE6ACF0E94B20B67CF813064
:1036C00001F5D3FE05C00E94D80E1092C0025ECF55
:1036D000D2FE03C00E94A20B59CFD1FE31C086E1B9
:1036E00094E00E947A0B60E080E00E94480B89E23F
:1036F00091E00E942B0B0E948D108AE08093C00203
:1037000045CF8230C9F4D3FCD7CFD1FE03C00E948D
:10371000920B3CCFD2FE3ACF87E08093C00286E185
:1037200094E00E947A0B60E080E00E94480B8FE1F9
:1037300091E00E942B0B2ACF8730E1F4D3FCCACF53
:103740008091C002873009F0F7C161E080E00E94FB
:10375000480B8091D402882309F4EAC18091D602F3
:103760001091D502873108F4EFC183ED91E00E94FA
:103770008010EEC18A3019F4D4FEE2CF9DCF84319F
:1037800008F4BAC190911504981708F4A2C11CEE70
:10379000180FD0FE4FC00091BF02002309F4F6CEEF
:1037A0006091BD027091BE02E12EF12C1630E9F459
:1037B000672BA9F40E941B13F701EE0FFF1FE050C7
:1037C000FF4F808191810E94C60D61E08AE00E94D6
:1037D000480B002309F469C688E191E068C667E0F8
:1037E00070E086E00E94E712E7CF89E08E9DF0014D
:1037F0008F9DF00D1124E65DFE4F83819481681743
:10380000790708F45CC6858196818617970708F4C6
:1038100056C68085811153C6812F0E941613193018
:1038200058F28FEF9FEF0E94C60D61E08AE00E9480
:10383000480BD2CFD4FE0EC08091BF02882309F47A
:1038400066CF1092BF02E12F193008F4C6C08FEF87
:103850009FEFCAC0D1FE57C08091BF0281111FC027
:103860001930E8F4E12FF0E039E0139FD001112482
:10387000A65DBE4F18968C91811111C0EE0FFF1FEF
:10388000E050FF4F808191819093BE028093BD02F2
:1038900021E02093BF021092BC020E94C60D8091CD
:1038A000BF02882309F472CE0091BC020F5F00931F
:1038B000BC02193048F449E0149FF0011124E65D80
:1038C000FE4F8781823061F0812F0E94830790E054
:1038D00001960817190631F481E08093BC0202C0FA
:1038E0000930D1F361E08091BC020E94480B6091E5
:1038F0002B04862F826080932B046A6086E194E01B
:103900000E94450B43CED3FE72C02091BF022223FA
:1039100009F456C0A090BD02B090BE028FEF9FEF99
:103920001930F0F5C12ED12C59E0159FF00111246A
:10393000E65DFE4F0781023080F4812F0E94DA1687
:103940008A0D9B1D9093BE028093BD028A159B0534
:1039500020F4B092BE02A092BD022091BD0230912F
:10396000BE02023099F48091BC02D101A81BB109BA
:10397000E1E0F0E002C0EE0FFF1FAA95E2F7CF01F1
:10398000822B932B9093BE028093BD0289E08C9D85
:10399000F0018D9DF00D1124E65DFE4F858196812D
:1039A0002091BD023091BE028217930720F4B0929D
:1039B000BE02A092BD028091BD029091BE0214C0D1
:1039C0008F5F8093C002891710F09093C002E0913E
:1039D000C002E451E93008F03ACFF0E0EE0FFF1FEB
:1039E000E050FF4F808191810E94C60DCFCDD2FE65
:1039F0006AC59091BF02992309F461C0C090BD02CD
:103A0000D090BE0290E080E0193008F041C0A12EB5
:103A1000B12C29E0129FF0011124E65DFE4F0781D1
:103A2000023088F4812F0E94DA16A601481B590B38
:103A30005093BE024093BD02C416D50620F4D09226
:103A4000BE02C092BD022091BD023091BE02023082
:103A5000A9F48091BC02D101A81BB109E1E0F0E01A
:103A600002C0EE0FFF1FAA95E2F7CF018095909557
:103A7000822393239093BE028093BD0289E08A9DA6
:103A8000F0018B9DF00D1124E65DFE4F8381948142
:103A90002091BD023091BE022817390720F4D09240
:103AA000BE02C092BD028091BD029091BE020196FD
:103AB00009F081CFD092BE02C092BD027CCF81506E
:103AC0008093C002843108F082CF84E18093C002E9
:103AD0007ECF883C89F4D2FE03C00E94820B56CD73
:103AE000D4FCF8CDD1FE52CD84E18093C002809108
:103AF00000019091010178CF823D09F0EAC4D3FC26
:103B000006CED4FCE7CDD1FE41CD83ED8093C0023B
:103B100060E088E00E94480B80E20E94220B2FEFB9
:103B20003FEF3093BE022093BD020E9436102ECD8F
:103B30008BE091E00E942B0B8091C0028A3009F04B
:103B400025CD0E948D1022CD62E090E00E94980D5C
:103B50008AE30E94220B1C3330F462E0812F90E054
:103B60000E94980DE9CF83ED91E00E948010E4CF90
:103B70008B3709F42FCD0091C9021091CA02C801F8
:103B80000E94AD06803109F012C2D8018C91853EA9
:103B900009F00DC214968C911497823009F007C277
:103BA00016962C911697809100019091010128178B
:103BB000190609F0E3C117962C91179780910E0111
:103BC00090910F012817190609F0D8C115968C910C
:103BD000159790E09C01E4E0220F331FEA95E1F78E
:103BE00020781996AC901997E894A7F82A2930E024
:103BF000322F222745E0880F991F4A95E1F78078F8
:103C00001896AC90E894A7F8A82AA20EB32EB11C7F
:103C10006501B1E0CB1AD108CA8AEC2DE93050F425
:103C200029E0C29EF0011124E65DFE4F31E087815C
:103C3000813009F030E0D80113968C918130F1F594
:103C4000B9E0CB16D104D0F5F801828590E0638508
:103C50006F77AC015695542F442757954795262FDB
:103C6000240F332309F4BBC236E0880F991F3A951D
:103C7000E1F7807864856F77862B682F70E0762F68
:103C80006627620F711D8C2D0E941613E091C902E8
:103C9000F091CA02838180648383FA894FEFF930FF
:103CA00030F4F601EE0FFF1FE050FF4F4081E12C92
:103CB00000E020E060E08A2D0E942E12E091C9020F
:103CC000F091CA0283818230B9F429E0C216D1048E
:103CD00098F482E483833A894FEF393030F4F60167
:103CE000EE0FFF1FE050FF4F4081E12C00E020E08D
:103CF00060E08A2D0E942E12E091C902F091CA0262
:103D00008381833009F04BC049E0C416D10408F028
:103D100046C0628570E0CB019695982F88279795CD
:103D20008795992723852F77280F392F311D16E086
:103D3000660F771F1A95E1F76078772784858F776C
:103D4000682B5A898FEF9FEF593038F4F601EE0F48
:103D5000FF1FE050FF4F8081918126233723232BC3
:103D600009F43FC2682B792B8C2D0E941613E09129
:103D7000C902F091CA028381806483838A894FEFEC
:103D8000893030F4F601EE0FFF1FE050FF4F408105
:103D9000E12C00E020E060E08A2D0E942E12E091EC
:103DA000C902F091CA028381853009F07FC099E091
:103DB000C916D10408F07AC0828590E08C0126E013
:103DC000000F111F2A95E1F7007864856F77062BA5
:103DD000BC0135E0660F771F3A95E1F7162F107892
:103DE00065856F77162BBC0144E0660F771F4A95F7
:103DF000E1F7A62FA078EA2E66856F77E62A63851D
:103E00006F779695982F882797958795680F70E01C
:103E10008C2D0E941613FF24F394FC0C602F70E08D
:103E20008F2D0E94161302E00C0D612F70E0802F81
:103E30000E94161313E01C0D6E2D70E0812F0E945E
:103E40001613E091C902F091CA02838180648383D2
:103E5000BA894FEFB93030F4F601EE0FFF1FE05092
:103E6000FF4F4081E8E02FEFEF1538F0EF2DF0E045
:103E7000EE0FFF1FE050FF4F2081093008F0B6C160
:103E8000E02FF0E0EE0FFF1FE050FF4F0081EE2427
:103E9000EA94193038F4E12FF0E0EE0FFF1FE05004
:103EA000FF4FE08060E08A2D0E942E12E091C9024F
:103EB000F091CA0283818630B1F529E0C216D1049F
:103EC00090F586E483833A894FEF393030F4F60178
:103ED000EE0FFF1FE050FF4F4081E1E0EC0D2FEFB0
:103EE000E93030F4F0E0EE0FFF1FE050FF4F20818B
:103EF000E2E0EC0D0FEFE93030F4F0E0EE0FFF1FE1
:103F0000E050FF4F0081E3E0EC0DEE24EA94E9304D
:103F100030F4F0E0EE0FFF1FE050FF4FE08060E074
:103F20008A2D0E942E12E091C902F091CA0283816B
:103F3000883061F488E4838340910E01E42E00917F
:103F4000000120E06DE08AE30E942E12E091C90298
:103F5000F091CA0283818F3089F40E941B13E09193
:103F6000C902F091CA02838180648383E12C00E05E
:103F700020E040E06B2D8A2D0E942E12E091C902B4
:103F8000F091CA028681811112C0878181110FC010
:103F90008381873061F487E4838340910E01E42EAE
:103FA0000091000120E06DE08AE30E942E128091D2
:103FB000020190910301892B21F08091100182FF71
:103FC00083C00E944C020091C3021091C402209150
:103FD000C5023091C602AB01BC01401B510B620B04
:103FE000730B433451056105710508F46DC0D901A7
:103FF000C8018D5B9F4FAF4FBF4F8093C30290931B
:10400000C402A093C502B093C6028091E8029091C9
:10401000E902029709F043C08091EF029091EE020D
:10402000890F8093EF0287FF25C09091EA028F7776
:104030008093EF028091F0028F5F8093F00287FF00
:1040400019C08DE68093EF02892F81708858809384
:10405000F0028091F1028F5F8F3708F0C9C0809322
:10406000F10291FFD9C08FEE8093EB028BEE92E0CC
:104070000E94B9068091EA0282FF11C08091F0028D
:1040800040E8849F900111248091EF02820F932FCA
:10409000911DD401A81BB90BCD010E94060D809182
:1040A000E8029091E902892B79F48BEB89838BE705
:1040B0008A831B82CE0101960E94B906E1E0F0E0FE
:1040C000F093E902E093E8028091D3028823D9F1CA
:1040D000809110012091020130910301232B11F0F6
:1040E00082FF31C083FD2FC02091D20280E6C82E0E
:1040F0008AEED82EE12CF12C222349F030E050E05A
:1041000040E0C301B2010E94C52469017A010E9406
:104110004C020091CE021091CF022091D00230913A
:10412000D102601B710B820B930BC616D706E806F3
:10413000F90648F48BEB89838BE78A831B82CE01D7
:1041400001960E94B9068091CD02882309F476C0B9
:1041500061E080917F040E94CA041092BD038093A5
:10416000BC03813009F45CC022E830E03093840461
:10417000209383048091800482FD60C08091CC02F2
:10418000882309F45EC0E090D602E092DE02F0904F
:10419000D502F092DD020091020110910301011598
:1041A000110509F063C08091D402811161C18FEBC8
:1041B00080930E0480930F04809310048093110465
:1041C00040E050E0452B09F446C80E9400003FC87B
:1041D00043E050E05093E9024093E802CCCC80E009
:1041E0004CCD6095709568237923BECD0FEF4FCEEF
:1041F00083E48093F1028091F3028F5F87FD03C017
:104200008093F3022ECF88E68093F3028091F4022C
:104210008F5F8093F40225CF80E00E94EF0C2ACFBD
:104220008091850490918604DC01ED91FC910284DB
:10423000F385E02D0995809380049ECF1092CC02E7
:10424000A2CF81E08093CC029091CB02913009F40F
:1042500082E08093CB028091CD02882309F493CF32
:104260008091CB028C6F0E9427068DCF84EB94E067
:104270000E94FC028BEA94E00E94FC0282EA94E035
:104280000E94FC0289E994E00E94FC0280E994E02B
:104290000E94FC0287E894E00E94FC0284EB94E018
:1042A0000E94F402882329F081E08093DC021092BE
:1042B000DB0284EB94E00E94EA02882321F0109252
:1042C000DB021092DC028BEA94E00E94F402882365
:1042D00029F01092DC0281E08093DB028BEA94E00B
:1042E0000E94EA02882321F01092DB021092DC0285
:1042F00089E994E00E94EA02882341F01092D702F3
:104300001092D8021092D9021092DA02A090D7022D
:10431000B090D802C090D902D090DA02B091DC02FD
:10432000BA8BA114B104C104D104E1F00E944C0283
:104330006A197B098C099D09613D774081059105CA
:1043400088F01092D7021092D8021092D9021092DF
:10435000DA02FA89F1111092DE028091DB028111FA
:104360001092DD022A89222331F182EA94E00E9430
:10437000F402882329F08091DE02865F8093DE02BA
:1043800089E994E00E94F402882379F00E944C02AB
:104390006093D7027093D8028093D9029093DA0287
:1043A0008091DE028F5F8093DE028091DE02883191
:1043B00010F01092DE028091DB02882331F182EA54
:1043C00094E00E94F402882329F08091DD02865F48
:1043D0008093DD0289E994E00E94F402882379F059
:1043E0000E944C026093D7027093D8028093D90246
:1043F0009093DA028091DD028F5F8093DD028091DD
:10440000DD028C3310F01092DD02D090DD0201301D
:10441000110589F580E994E00E94F402882319F0DF
:10442000D394D092DD0280E994E00E94EA028823CE
:1044300029F08091DD028F5F8093DD028091DD02A3
:104440008C3348F08091DE021092DD028F5F88315C
:1044500008F58093DE024091DE022091DD02E41235
:1044600002C0F21629F001E061E081E00E94C20B77
:104470000E94A407A5CE0230110501F787E894E059
:104480000E94F402882319F0D394D092DD0287E8C9
:1044900094E0CBCF1092DE02DECF8FEF9FEF0E9431
:1044A000C60D61E08AE00E94480B81E191E00E9424
:1044B0002B0B61E08091BC020E94480B67C8193049
:1044C00060F700E079C9883C09F40ACB823D09F421
:1044D00018CB833D09F034C9D4FCFFCAD2FE30C9E1
:1044E00024CBF999FECF92BD81BDF89A992780B56A
:1044F0000895262FF999FECF1FBA92BD81BD20BD28
:104500000FB6F894FA9AF99A0FBE0196089550588A
:10451000BB27AA270E949F220C9412240E940424E5
:1045200038F00E940B2420F039F49F3F19F426F450
:104530000C9401240EF4E095E7FB0C94FB23E92F87
:104540000E94232458F3BA1762077307840795075C
:1045500020F079F4A6F50C9445240EF4E0950B2E8A
:10456000BA2FA02D0B01B90190010C01CA01A001C5
:104570001124FF27591B99F0593F50F4503E68F120
:104580001A16F040A22F232F342F4427585FF3CF61
:10459000469537952795A795F0405395C9F77EF432
:1045A0001F16BA0B620B730B840BBAF09150A1F07B
:1045B000FF0FBB1F661F771F881FC2F70EC0BA0F01
:1045C000621F731F841F48F4879577956795B79589
:1045D000F7959E3F08F0B0CF9395880F08F0992784
:1045E000EE0F9795879508950E94D72308F481E0F0
:1045F00008950E940D230C9412240E940B2458F05D
:104600000E94042440F029F45F3F29F00C94FB231E
:1046100051110C9446240C9401240E94232468F325
:104620009923B1F3552391F3951B550BBB27AA276B
:1046300062177307840738F09F5F5F4F220F331FA5
:10464000441FAA1FA9F335D00E2E3AF0E0E832D06D
:1046500091505040E695001CCAF72BD0FE2F29D070
:10466000660F771F881FBB1F261737074807AB0742
:10467000B0E809F0BB0B802DBF01FF2793585F4FB7
:104680003AF09E3F510578F00C94FB230C9446249D
:104690005F3FE4F3983ED4F3869577956795B79599
:1046A000F7959F5FC9F7880F911D9695879597F9A4
:1046B0000895E1E0660F771F881FBB1F621773071D
:1046C0008407BA0720F0621B730B840BBA0BEE1F32
:1046D00088F7E09508950E942B2488F09F5798F062
:1046E000B92F9927B751B0F0E1F0660F771F881FF7
:1046F000991F1AF0BA95C9F714C0B13091F00E9411
:104700004524B1E008950C944524672F782F88271D
:10471000B85F39F0B93FCCF3869577956795B39537
:10472000D9F73EF490958095709561957F4F8F4FA6
:104730009F4F0895E89409C097FB3EF490958095AB
:10474000709561957F4F8F4F9F4F9923A9F0F92F57
:1047500096E9BB279395F695879577956795B795D5
:10476000F111F8CFFAF4BB0F11F460FF1BC06F5FBB
:104770007F4F8F4F9F4F16C0882311F096E911C0CD
:10478000772321F09EE8872F762F05C0662371F0EE
:1047900096E8862F70E060E02AF09A95660F771F02
:1047A000881FDAF7880F9695879597F90895990FDE
:1047B0000008550FAA0BE0E8FEEF16161706E807EB
:1047C000F907C0F012161306E407F50798F0621B0C
:1047D000730B840B950B39F40A2661F0232B242BE1
:1047E000252B21F408950A2609F4A140A6958FEF00
:1047F000811D811D089597F99F6780E870E060E052
:1048000008959FEF80EC089500240A941616170669
:1048100018060906089500240A94121613061406B1
:1048200005060895092E0394000C11F4882352F014
:10483000BB0F40F4BF2B11F460FF04C06F5F7F4FCC
:104840008F4F9F4F089557FD9058440F551F59F0B3
:104850005F3F71F04795880F97FB991F61F09F3F6D
:1048600079F087950895121613061406551FF2CF96
:104870004695F1DF08C0161617061806991FF1CFE6
:1048800086957105610508940895E894BB2766270D
:104890007727CB0197F908950E945F240C94122486
:1048A0000E94042438F00E940B2420F0952311F07C
:1048B0000C94FB230C94012411240C9446240E9494
:1048C000232470F3959FC1F3950F50E0551F629F0D
:1048D000F001729FBB27F00DB11D639FAA27F00D59
:1048E000B11DAA1F649F6627B00DA11D661F829F80
:1048F0002227B00DA11D621F739FB00DA11D621F65
:10490000839FA00D611D221F749F3327A00D611D81
:10491000231F849F600D211D822F762F6A2F112463
:104920009F5750409AF0F1F088234AF0EE0FFF1F96
:10493000BB1F661F771F881F91505040A9F79E3FED
:10494000510580F00C94FB230C9446245F3FE4F364
:10495000983ED4F3869577956795B795F795E79543
:104960009F5FC1F7FE2B880F911D9695879597F94C
:104970000895991B79E004C0991F961708F0961BBB
:10498000881F7A95C9F780950895A1E21A2EAA1B6F
:10499000BB1BFD010DC0AA1FBB1FEE1FFF1FA217EF
:1049A000B307E407F50720F0A21BB30BE40BF50BEC
:1049B000661F771F881F991F1A9469F76095709575
:1049C000809590959B01AC01BD01CF010895EE0F3C
:1049D000FF1F0590F491E02D09940F931F93CF933F
:1049E000DF938230910510F482E090E0E091C804FA
:1049F000F091C90430E020E0B0E0A0E0309799F4F5
:104A00002115310509F44AC0281B390B2430310522
:104A1000D8F58A819B816115710589F1FB0193832A
:104A20008283FE0111C040815181028113814817A8
:104A30005907E0F04817590799F4109761F012965A
:104A40000C93129713961C933296CF01DF91CF915E
:104A50001F910F9108950093C8041093C904F4CFD7
:104A60002115310551F04217530738F0A901DB0138
:104A70009A01BD01DF01F801C1CFEF01F9CF909399
:104A8000C9048093C804CDCFFE01E20FF31F8193C8
:104A900091932250310939832883D7CF2091C604BE
:104AA0003091C704232B41F420911401309115015A
:104AB0003093C7042093C604209112013091130152
:104AC0002115310541F42DB73EB7409116015091A3
:104AD0001701241B350BE091C604F091C704E217BF
:104AE000F307A0F42E1B3F0B2817390778F0AC0111
:104AF0004E5F5F4F2417350748F04E0F5F1F5093EE
:104B0000C7044093C604819391939FCFF0E0E0E007
:104B10009CCFCF93DF930097E9F0FC01329713828B
:104B20001282A091C804B091C904ED0130E020E0E8
:104B30001097A1F420813181820F931F2091C60428
:104B40003091C7042817390709F061C0F093C704F2
:104B5000E093C604DF91CF910895EA01CE17DF07F5
:104B6000E8F54A815B819E0141155105B1F7E901E4
:104B7000FB83EA8349915991C40FD51FEC17FD07B8
:104B800061F4808191810296840F951FE9019983D8
:104B90008883828193819B838A83F0E0E0E0129690
:104BA0008D919C9113970097B9F52D913C91119798
:104BB000CD010296820F931F2091C6043091C70445
:104BC0002817390739F6309751F51092C904109219
:104BD000C804B093C704A093C604BCCFD383C283D8
:104BE00040815181840F951FC817D90761F44E5F2A
:104BF0005F4F88819981480F591F518340838A8173
:104C00009B81938382832115310509F0B0CFF09306
:104C1000C904E093C8049ECFFD01DC01C0CF13821C
:104C20001282D7CF6817790768F4FB01DC01E40F23
:104C3000F51FA40FB51F02C002900E9241505040C4
:104C4000D8F708950C942426FB01DC0102C00190E2
:0E4C50000D9241505040D8F70895F894FFCFD0
:104C5E00FFFFFFFFFFFFFFFFFFFFFFFFFFFFFFFF56
:104C6E00FFFF0000CA048000000040001400540042
:104C7E0001000A006400E803102700010001007E15
:104C8E000000000100000000020000000200000011
:104C9E0000000000010300000000000000010400FD
:104CAE0000000000000001050000000000000001EF
:104CBE00060700000007000000070C000C000C00A7
:104CCE000001081C000000FF000200C0F9A4B0990A
:104CDE009282F880908883A7A1868EC289F9F18985
:104CEE00C7FFABC08C98AF9287C1C1FF8991A4FF5B
:104CFE00BF7FADB7ACC69BF0DCF7E3CF9C000000E6
:104D0E0000F005C305F6079905BC05A9059A05002F
:104D1E000000001C0B5802F607F5074F0045003146
:064D2E000030003F3F00D1
:00000001FF
